{
	"perpustakaan.sol": {
		"Library": {
			"abi": [
				{
					"anonymous": false,
					"inputs": [
						{
							"indexed": true,
							"internalType": "uint256",
							"name": "ISBN",
							"type": "uint256"
						},
						{
							"indexed": false,
							"internalType": "string",
							"name": "title",
							"type": "string"
						},
						{
							"indexed": false,
							"internalType": "string",
							"name": "author",
							"type": "string"
						}
					],
					"name": "BookAdded",
					"type": "event"
				},
				{
					"anonymous": false,
					"inputs": [
						{
							"indexed": true,
							"internalType": "uint256",
							"name": "ISBN",
							"type": "uint256"
						}
					],
					"name": "BookDeleted",
					"type": "event"
				},
				{
					"anonymous": false,
					"inputs": [
						{
							"indexed": true,
							"internalType": "uint256",
							"name": "ISBN",
							"type": "uint256"
						},
						{
							"indexed": false,
							"internalType": "string",
							"name": "title",
							"type": "string"
						},
						{
							"indexed": false,
							"internalType": "string",
							"name": "author",
							"type": "string"
						}
					],
					"name": "BookUpdated",
					"type": "event"
				},
				{
					"inputs": [
						{
							"internalType": "string",
							"name": "_title",
							"type": "string"
						},
						{
							"internalType": "string",
							"name": "_author",
							"type": "string"
						},
						{
							"internalType": "uint256",
							"name": "_ISBN",
							"type": "uint256"
						}
					],
					"name": "addBook",
					"outputs": [],
					"stateMutability": "nonpayable",
					"type": "function"
				},
				{
					"inputs": [],
					"name": "bookCount",
					"outputs": [
						{
							"internalType": "uint256",
							"name": "",
							"type": "uint256"
						}
					],
					"stateMutability": "view",
					"type": "function"
				},
				{
					"inputs": [
						{
							"internalType": "uint256",
							"name": "",
							"type": "uint256"
						}
					],
					"name": "books",
					"outputs": [
						{
							"internalType": "string",
							"name": "title",
							"type": "string"
						},
						{
							"internalType": "string",
							"name": "author",
							"type": "string"
						},
						{
							"internalType": "uint256",
							"name": "ISBN",
							"type": "uint256"
						}
					],
					"stateMutability": "view",
					"type": "function"
				},
				{
					"inputs": [
						{
							"internalType": "uint256",
							"name": "_ISBN",
							"type": "uint256"
						}
					],
					"name": "deleteBook",
					"outputs": [],
					"stateMutability": "nonpayable",
					"type": "function"
				},
				{
					"inputs": [
						{
							"internalType": "uint256",
							"name": "_ISBN",
							"type": "uint256"
						}
					],
					"name": "getBook",
					"outputs": [
						{
							"internalType": "string",
							"name": "",
							"type": "string"
						},
						{
							"internalType": "string",
							"name": "",
							"type": "string"
						},
						{
							"internalType": "uint256",
							"name": "",
							"type": "uint256"
						}
					],
					"stateMutability": "view",
					"type": "function"
				},
				{
					"inputs": [
						{
							"internalType": "uint256",
							"name": "_ISBN",
							"type": "uint256"
						},
						{
							"internalType": "string",
							"name": "_title",
							"type": "string"
						},
						{
							"internalType": "string",
							"name": "_author",
							"type": "string"
						}
					],
					"name": "updateBook",
					"outputs": [],
					"stateMutability": "nonpayable",
					"type": "function"
				}
			],
			"devdoc": {
				"kind": "dev",
				"methods": {},
				"version": 1
			},
			"evm": {
				"assembly": "    /* \"perpustakaan.sol\":60:1694  contract Library {... */\n  mstore(0x40, 0x80)\n  callvalue\n  dup1\n  iszero\n  tag_1\n  jumpi\n  0x00\n  dup1\n  revert\ntag_1:\n  pop\n  dataSize(sub_0)\n  dup1\n  dataOffset(sub_0)\n  0x00\n  codecopy\n  0x00\n  return\nstop\n\nsub_0: assembly {\n        /* \"perpustakaan.sol\":60:1694  contract Library {... */\n      mstore(0x40, 0x80)\n      callvalue\n      dup1\n      iszero\n      tag_1\n      jumpi\n      0x00\n      dup1\n      revert\n    tag_1:\n      pop\n      jumpi(tag_2, lt(calldatasize, 0x04))\n      shr(0xe0, calldataload(0x00))\n      dup1\n      0x04266224\n      eq\n      tag_3\n      jumpi\n      dup1\n      0x2151fb38\n      eq\n      tag_4\n      jumpi\n      dup1\n      0x68744046\n      eq\n      tag_5\n      jumpi\n      dup1\n      0xa65139dc\n      eq\n      tag_6\n      jumpi\n      dup1\n      0xb905ad78\n      eq\n      tag_7\n      jumpi\n      dup1\n      0xe0ff5b8b\n      eq\n      tag_8\n      jumpi\n    tag_2:\n      0x00\n      dup1\n      revert\n        /* \"perpustakaan.sol\":455:879  function addBook(string memory _title, string memory _author, uint256 _ISBN) public {... */\n    tag_3:\n      tag_9\n      0x04\n      dup1\n      calldatasize\n      sub\n      dup2\n      add\n      swap1\n      tag_10\n      swap2\n      swap1\n      tag_11\n      jump\t// in\n    tag_10:\n      tag_12\n      jump\t// in\n    tag_9:\n      stop\n        /* \"perpustakaan.sol\":1203:1423  function deleteBook(uint256 _ISBN) public {... */\n    tag_4:\n      tag_13\n      0x04\n      dup1\n      calldatasize\n      sub\n      dup2\n      add\n      swap1\n      tag_14\n      swap2\n      swap1\n      tag_15\n      jump\t// in\n    tag_14:\n      tag_16\n      jump\t// in\n    tag_13:\n      stop\n        /* \"perpustakaan.sol\":182:219  mapping(uint256 => Book) public books */\n    tag_5:\n      tag_17\n      0x04\n      dup1\n      calldatasize\n      sub\n      dup2\n      add\n      swap1\n      tag_18\n      swap2\n      swap1\n      tag_15\n      jump\t// in\n    tag_18:\n      tag_19\n      jump\t// in\n    tag_17:\n      mload(0x40)\n      tag_20\n      swap4\n      swap3\n      swap2\n      swap1\n      tag_21\n      jump\t// in\n    tag_20:\n      mload(0x40)\n      dup1\n      swap2\n      sub\n      swap1\n      return\n        /* \"perpustakaan.sol\":887:1195  function updateBook(uint256 _ISBN, string memory _title, string memory _author) public {... */\n    tag_6:\n      tag_22\n      0x04\n      dup1\n      calldatasize\n      sub\n      dup2\n      add\n      swap1\n      tag_23\n      swap2\n      swap1\n      tag_24\n      jump\t// in\n    tag_23:\n      tag_25\n      jump\t// in\n    tag_22:\n      stop\n        /* \"perpustakaan.sol\":226:250  uint256 public bookCount */\n    tag_7:\n      tag_26\n      tag_27\n      jump\t// in\n    tag_26:\n      mload(0x40)\n      tag_28\n      swap2\n      swap1\n      tag_29\n      jump\t// in\n    tag_28:\n      mload(0x40)\n      dup1\n      swap2\n      sub\n      swap1\n      return\n        /* \"perpustakaan.sol\":1431:1691  function getBook(uint256 _ISBN) public view returns (string memory, string memory, uint256) {... */\n    tag_8:\n      tag_30\n      0x04\n      dup1\n      calldatasize\n      sub\n      dup2\n      add\n      swap1\n      tag_31\n      swap2\n      swap1\n      tag_15\n      jump\t// in\n    tag_31:\n      tag_32\n      jump\t// in\n    tag_30:\n      mload(0x40)\n      tag_33\n      swap4\n      swap3\n      swap2\n      swap1\n      tag_21\n      jump\t// in\n    tag_33:\n      mload(0x40)\n      dup1\n      swap2\n      sub\n      swap1\n      return\n        /* \"perpustakaan.sol\":455:879  function addBook(string memory _title, string memory _author, uint256 _ISBN) public {... */\n    tag_12:\n        /* \"perpustakaan.sol\":579:580  0 */\n      0x00\n        /* \"perpustakaan.sol\":558:563  books */\n      dup1\n        /* \"perpustakaan.sol\":558:570  books[_ISBN] */\n      0x00\n        /* \"perpustakaan.sol\":564:569  _ISBN */\n      dup4\n        /* \"perpustakaan.sol\":558:570  books[_ISBN] */\n      dup2\n      mstore\n      0x20\n      add\n      swap1\n      dup2\n      mstore\n      0x20\n      add\n      0x00\n      keccak256\n        /* \"perpustakaan.sol\":558:575  books[_ISBN].ISBN */\n      0x02\n      add\n      sload\n        /* \"perpustakaan.sol\":558:580  books[_ISBN].ISBN == 0 */\n      eq\n        /* \"perpustakaan.sol\":550:619  require(books[_ISBN].ISBN == 0, \"Book with this ISBN already exists\") */\n      tag_35\n      jumpi\n      mload(0x40)\n      0x08c379a000000000000000000000000000000000000000000000000000000000\n      dup2\n      mstore\n      0x04\n      add\n      tag_36\n      swap1\n      tag_37\n      jump\t// in\n    tag_36:\n      mload(0x40)\n      dup1\n      swap2\n      sub\n      swap1\n      revert\n    tag_35:\n        /* \"perpustakaan.sol\":640:659  Book memory newBook */\n      0x00\n        /* \"perpustakaan.sol\":662:763  Book({... */\n      mload(0x40)\n      dup1\n      0x60\n      add\n      0x40\n      mstore\n      dup1\n        /* \"perpustakaan.sol\":689:695  _title */\n      dup6\n        /* \"perpustakaan.sol\":662:763  Book({... */\n      dup2\n      mstore\n      0x20\n      add\n        /* \"perpustakaan.sol\":718:725  _author */\n      dup5\n        /* \"perpustakaan.sol\":662:763  Book({... */\n      dup2\n      mstore\n      0x20\n      add\n        /* \"perpustakaan.sol\":746:751  _ISBN */\n      dup4\n        /* \"perpustakaan.sol\":662:763  Book({... */\n      dup2\n      mstore\n      pop\n        /* \"perpustakaan.sol\":640:763  Book memory newBook = Book({... */\n      swap1\n      pop\n        /* \"perpustakaan.sol\":791:798  newBook */\n      dup1\n        /* \"perpustakaan.sol\":776:781  books */\n      0x00\n        /* \"perpustakaan.sol\":776:788  books[_ISBN] */\n      dup1\n        /* \"perpustakaan.sol\":782:787  _ISBN */\n      dup5\n        /* \"perpustakaan.sol\":776:788  books[_ISBN] */\n      dup2\n      mstore\n      0x20\n      add\n      swap1\n      dup2\n      mstore\n      0x20\n      add\n      0x00\n      keccak256\n        /* \"perpustakaan.sol\":776:798  books[_ISBN] = newBook */\n      0x00\n      dup3\n      add\n      mload\n      dup2\n      0x00\n      add\n      swap1\n      dup2\n      tag_38\n      swap2\n      swap1\n      tag_39\n      jump\t// in\n    tag_38:\n      pop\n      0x20\n      dup3\n      add\n      mload\n      dup2\n      0x01\n      add\n      swap1\n      dup2\n      tag_40\n      swap2\n      swap1\n      tag_39\n      jump\t// in\n    tag_40:\n      pop\n      0x40\n      dup3\n      add\n      mload\n      dup2\n      0x02\n      add\n      sstore\n      swap1\n      pop\n      pop\n        /* \"perpustakaan.sol\":809:818  bookCount */\n      0x01\n      0x00\n        /* \"perpustakaan.sol\":809:820  bookCount++ */\n      dup2\n      sload\n      dup1\n      swap3\n      swap2\n      swap1\n      tag_41\n      swap1\n      tag_42\n      jump\t// in\n    tag_41:\n      swap2\n      swap1\n      pop\n      sstore\n      pop\n        /* \"perpustakaan.sol\":848:853  _ISBN */\n      dup2\n        /* \"perpustakaan.sol\":838:871  BookAdded(_ISBN, _title, _author) */\n      0xf3af718913a5a546501afa100bc90d209d682ade91b77ac38ed42c6849230c3c\n        /* \"perpustakaan.sol\":855:861  _title */\n      dup6\n        /* \"perpustakaan.sol\":863:870  _author */\n      dup6\n        /* \"perpustakaan.sol\":838:871  BookAdded(_ISBN, _title, _author) */\n      mload(0x40)\n      tag_43\n      swap3\n      swap2\n      swap1\n      tag_44\n      jump\t// in\n    tag_43:\n      mload(0x40)\n      dup1\n      swap2\n      sub\n      swap1\n      log2\n        /* \"perpustakaan.sol\":539:879  {... */\n      pop\n        /* \"perpustakaan.sol\":455:879  function addBook(string memory _title, string memory _author, uint256 _ISBN) public {... */\n      pop\n      pop\n      pop\n      jump\t// out\n        /* \"perpustakaan.sol\":1203:1423  function deleteBook(uint256 _ISBN) public {... */\n    tag_16:\n        /* \"perpustakaan.sol\":1285:1286  0 */\n      0x00\n        /* \"perpustakaan.sol\":1264:1269  books */\n      dup1\n        /* \"perpustakaan.sol\":1264:1276  books[_ISBN] */\n      0x00\n        /* \"perpustakaan.sol\":1270:1275  _ISBN */\n      dup4\n        /* \"perpustakaan.sol\":1264:1276  books[_ISBN] */\n      dup2\n      mstore\n      0x20\n      add\n      swap1\n      dup2\n      mstore\n      0x20\n      add\n      0x00\n      keccak256\n        /* \"perpustakaan.sol\":1264:1281  books[_ISBN].ISBN */\n      0x02\n      add\n      sload\n        /* \"perpustakaan.sol\":1264:1286  books[_ISBN].ISBN != 0 */\n      sub\n        /* \"perpustakaan.sol\":1256:1325  require(books[_ISBN].ISBN != 0, \"Book with this ISBN does not exist\") */\n      tag_46\n      jumpi\n      mload(0x40)\n      0x08c379a000000000000000000000000000000000000000000000000000000000\n      dup2\n      mstore\n      0x04\n      add\n      tag_47\n      swap1\n      tag_48\n      jump\t// in\n    tag_47:\n      mload(0x40)\n      dup1\n      swap2\n      sub\n      swap1\n      revert\n    tag_46:\n        /* \"perpustakaan.sol\":1345:1350  books */\n      0x00\n        /* \"perpustakaan.sol\":1345:1357  books[_ISBN] */\n      dup1\n        /* \"perpustakaan.sol\":1351:1356  _ISBN */\n      dup3\n        /* \"perpustakaan.sol\":1345:1357  books[_ISBN] */\n      dup2\n      mstore\n      0x20\n      add\n      swap1\n      dup2\n      mstore\n      0x20\n      add\n      0x00\n      keccak256\n      0x00\n        /* \"perpustakaan.sol\":1338:1357  delete books[_ISBN] */\n      dup1\n      dup3\n      add\n      0x00\n      tag_49\n      swap2\n      swap1\n      tag_50\n      jump\t// in\n    tag_49:\n      0x01\n      dup3\n      add\n      0x00\n      tag_51\n      swap2\n      swap1\n      tag_50\n      jump\t// in\n    tag_51:\n      0x02\n      dup3\n      add\n      0x00\n      swap1\n      sstore\n      pop\n      pop\n        /* \"perpustakaan.sol\":1368:1377  bookCount */\n      0x01\n      0x00\n        /* \"perpustakaan.sol\":1368:1379  bookCount-- */\n      dup2\n      sload\n      dup1\n      swap3\n      swap2\n      swap1\n      tag_52\n      swap1\n      tag_53\n      jump\t// in\n    tag_52:\n      swap2\n      swap1\n      pop\n      sstore\n      pop\n        /* \"perpustakaan.sol\":1409:1414  _ISBN */\n      dup1\n        /* \"perpustakaan.sol\":1397:1415  BookDeleted(_ISBN) */\n      0xd5ed47574df40471633fbb8b010e6a63564a4d1b16a1de678595713ab3150d\n      mload(0x40)\n      mload(0x40)\n      dup1\n      swap2\n      sub\n      swap1\n      log2\n        /* \"perpustakaan.sol\":1203:1423  function deleteBook(uint256 _ISBN) public {... */\n      pop\n      jump\t// out\n        /* \"perpustakaan.sol\":182:219  mapping(uint256 => Book) public books */\n    tag_19:\n      mstore(0x20, 0x00)\n      dup1\n      0x00\n      mstore\n      keccak256(0x00, 0x40)\n      0x00\n      swap2\n      pop\n      swap1\n      pop\n      dup1\n      0x00\n      add\n      dup1\n      sload\n      tag_54\n      swap1\n      tag_55\n      jump\t// in\n    tag_54:\n      dup1\n      0x1f\n      add\n      0x20\n      dup1\n      swap2\n      div\n      mul\n      0x20\n      add\n      mload(0x40)\n      swap1\n      dup2\n      add\n      0x40\n      mstore\n      dup1\n      swap3\n      swap2\n      swap1\n      dup2\n      dup2\n      mstore\n      0x20\n      add\n      dup3\n      dup1\n      sload\n      tag_56\n      swap1\n      tag_55\n      jump\t// in\n    tag_56:\n      dup1\n      iszero\n      tag_57\n      jumpi\n      dup1\n      0x1f\n      lt\n      tag_58\n      jumpi\n      0x0100\n      dup1\n      dup4\n      sload\n      div\n      mul\n      dup4\n      mstore\n      swap2\n      0x20\n      add\n      swap2\n      jump(tag_57)\n    tag_58:\n      dup3\n      add\n      swap2\n      swap1\n      0x00\n      mstore\n      keccak256(0x00, 0x20)\n      swap1\n    tag_59:\n      dup2\n      sload\n      dup2\n      mstore\n      swap1\n      0x01\n      add\n      swap1\n      0x20\n      add\n      dup1\n      dup4\n      gt\n      tag_59\n      jumpi\n      dup3\n      swap1\n      sub\n      0x1f\n      and\n      dup3\n      add\n      swap2\n    tag_57:\n      pop\n      pop\n      pop\n      pop\n      pop\n      swap1\n      dup1\n      0x01\n      add\n      dup1\n      sload\n      tag_60\n      swap1\n      tag_55\n      jump\t// in\n    tag_60:\n      dup1\n      0x1f\n      add\n      0x20\n      dup1\n      swap2\n      div\n      mul\n      0x20\n      add\n      mload(0x40)\n      swap1\n      dup2\n      add\n      0x40\n      mstore\n      dup1\n      swap3\n      swap2\n      swap1\n      dup2\n      dup2\n      mstore\n      0x20\n      add\n      dup3\n      dup1\n      sload\n      tag_61\n      swap1\n      tag_55\n      jump\t// in\n    tag_61:\n      dup1\n      iszero\n      tag_62\n      jumpi\n      dup1\n      0x1f\n      lt\n      tag_63\n      jumpi\n      0x0100\n      dup1\n      dup4\n      sload\n      div\n      mul\n      dup4\n      mstore\n      swap2\n      0x20\n      add\n      swap2\n      jump(tag_62)\n    tag_63:\n      dup3\n      add\n      swap2\n      swap1\n      0x00\n      mstore\n      keccak256(0x00, 0x20)\n      swap1\n    tag_64:\n      dup2\n      sload\n      dup2\n      mstore\n      swap1\n      0x01\n      add\n      swap1\n      0x20\n      add\n      dup1\n      dup4\n      gt\n      tag_64\n      jumpi\n      dup3\n      swap1\n      sub\n      0x1f\n      and\n      dup3\n      add\n      swap2\n    tag_62:\n      pop\n      pop\n      pop\n      pop\n      pop\n      swap1\n      dup1\n      0x02\n      add\n      sload\n      swap1\n      pop\n      dup4\n      jump\t// out\n        /* \"perpustakaan.sol\":887:1195  function updateBook(uint256 _ISBN, string memory _title, string memory _author) public {... */\n    tag_25:\n        /* \"perpustakaan.sol\":1014:1015  0 */\n      0x00\n        /* \"perpustakaan.sol\":993:998  books */\n      dup1\n        /* \"perpustakaan.sol\":993:1005  books[_ISBN] */\n      0x00\n        /* \"perpustakaan.sol\":999:1004  _ISBN */\n      dup6\n        /* \"perpustakaan.sol\":993:1005  books[_ISBN] */\n      dup2\n      mstore\n      0x20\n      add\n      swap1\n      dup2\n      mstore\n      0x20\n      add\n      0x00\n      keccak256\n        /* \"perpustakaan.sol\":993:1010  books[_ISBN].ISBN */\n      0x02\n      add\n      sload\n        /* \"perpustakaan.sol\":993:1015  books[_ISBN].ISBN != 0 */\n      sub\n        /* \"perpustakaan.sol\":985:1054  require(books[_ISBN].ISBN != 0, \"Book with this ISBN does not exist\") */\n      tag_66\n      jumpi\n      mload(0x40)\n      0x08c379a000000000000000000000000000000000000000000000000000000000\n      dup2\n      mstore\n      0x04\n      add\n      tag_67\n      swap1\n      tag_48\n      jump\t// in\n    tag_67:\n      mload(0x40)\n      dup1\n      swap2\n      sub\n      swap1\n      revert\n    tag_66:\n        /* \"perpustakaan.sol\":1088:1094  _title */\n      dup2\n        /* \"perpustakaan.sol\":1067:1072  books */\n      0x00\n        /* \"perpustakaan.sol\":1067:1079  books[_ISBN] */\n      dup1\n        /* \"perpustakaan.sol\":1073:1078  _ISBN */\n      dup6\n        /* \"perpustakaan.sol\":1067:1079  books[_ISBN] */\n      dup2\n      mstore\n      0x20\n      add\n      swap1\n      dup2\n      mstore\n      0x20\n      add\n      0x00\n      keccak256\n        /* \"perpustakaan.sol\":1067:1085  books[_ISBN].title */\n      0x00\n      add\n        /* \"perpustakaan.sol\":1067:1094  books[_ISBN].title = _title */\n      swap1\n      dup2\n      tag_68\n      swap2\n      swap1\n      tag_39\n      jump\t// in\n    tag_68:\n      pop\n        /* \"perpustakaan.sol\":1127:1134  _author */\n      dup1\n        /* \"perpustakaan.sol\":1105:1110  books */\n      0x00\n        /* \"perpustakaan.sol\":1105:1117  books[_ISBN] */\n      dup1\n        /* \"perpustakaan.sol\":1111:1116  _ISBN */\n      dup6\n        /* \"perpustakaan.sol\":1105:1117  books[_ISBN] */\n      dup2\n      mstore\n      0x20\n      add\n      swap1\n      dup2\n      mstore\n      0x20\n      add\n      0x00\n      keccak256\n        /* \"perpustakaan.sol\":1105:1124  books[_ISBN].author */\n      0x01\n      add\n        /* \"perpustakaan.sol\":1105:1134  books[_ISBN].author = _author */\n      swap1\n      dup2\n      tag_69\n      swap2\n      swap1\n      tag_39\n      jump\t// in\n    tag_69:\n      pop\n        /* \"perpustakaan.sol\":1164:1169  _ISBN */\n      dup3\n        /* \"perpustakaan.sol\":1152:1187  BookUpdated(_ISBN, _title, _author) */\n      0xb031395aaf17ef8a3bcd52277fba40f35eec75374fc65c7c44680dace8abc448\n        /* \"perpustakaan.sol\":1171:1177  _title */\n      dup4\n        /* \"perpustakaan.sol\":1179:1186  _author */\n      dup4\n        /* \"perpustakaan.sol\":1152:1187  BookUpdated(_ISBN, _title, _author) */\n      mload(0x40)\n      tag_70\n      swap3\n      swap2\n      swap1\n      tag_44\n      jump\t// in\n    tag_70:\n      mload(0x40)\n      dup1\n      swap2\n      sub\n      swap1\n      log2\n        /* \"perpustakaan.sol\":887:1195  function updateBook(uint256 _ISBN, string memory _title, string memory _author) public {... */\n      pop\n      pop\n      pop\n      jump\t// out\n        /* \"perpustakaan.sol\":226:250  uint256 public bookCount */\n    tag_27:\n      sload(0x01)\n      dup2\n      jump\t// out\n        /* \"perpustakaan.sol\":1431:1691  function getBook(uint256 _ISBN) public view returns (string memory, string memory, uint256) {... */\n    tag_32:\n        /* \"perpustakaan.sol\":1484:1497  string memory */\n      0x60\n        /* \"perpustakaan.sol\":1499:1512  string memory */\n      dup1\n        /* \"perpustakaan.sol\":1514:1521  uint256 */\n      0x00\n        /* \"perpustakaan.sol\":1563:1564  0 */\n      dup1\n        /* \"perpustakaan.sol\":1542:1547  books */\n      0x00\n        /* \"perpustakaan.sol\":1542:1554  books[_ISBN] */\n      dup1\n        /* \"perpustakaan.sol\":1548:1553  _ISBN */\n      dup7\n        /* \"perpustakaan.sol\":1542:1554  books[_ISBN] */\n      dup2\n      mstore\n      0x20\n      add\n      swap1\n      dup2\n      mstore\n      0x20\n      add\n      0x00\n      keccak256\n        /* \"perpustakaan.sol\":1542:1559  books[_ISBN].ISBN */\n      0x02\n      add\n      sload\n        /* \"perpustakaan.sol\":1542:1564  books[_ISBN].ISBN != 0 */\n      sub\n        /* \"perpustakaan.sol\":1534:1603  require(books[_ISBN].ISBN != 0, \"Book with this ISBN does not exist\") */\n      tag_72\n      jumpi\n      mload(0x40)\n      0x08c379a000000000000000000000000000000000000000000000000000000000\n      dup2\n      mstore\n      0x04\n      add\n      tag_73\n      swap1\n      tag_48\n      jump\t// in\n    tag_73:\n      mload(0x40)\n      dup1\n      swap2\n      sub\n      swap1\n      revert\n    tag_72:\n        /* \"perpustakaan.sol\":1624:1629  books */\n      0x00\n        /* \"perpustakaan.sol\":1624:1636  books[_ISBN] */\n      dup1\n        /* \"perpustakaan.sol\":1630:1635  _ISBN */\n      dup6\n        /* \"perpustakaan.sol\":1624:1636  books[_ISBN] */\n      dup2\n      mstore\n      0x20\n      add\n      swap1\n      dup2\n      mstore\n      0x20\n      add\n      0x00\n      keccak256\n        /* \"perpustakaan.sol\":1624:1642  books[_ISBN].title */\n      0x00\n      add\n        /* \"perpustakaan.sol\":1644:1649  books */\n      0x00\n        /* \"perpustakaan.sol\":1644:1656  books[_ISBN] */\n      dup1\n        /* \"perpustakaan.sol\":1650:1655  _ISBN */\n      dup7\n        /* \"perpustakaan.sol\":1644:1656  books[_ISBN] */\n      dup2\n      mstore\n      0x20\n      add\n      swap1\n      dup2\n      mstore\n      0x20\n      add\n      0x00\n      keccak256\n        /* \"perpustakaan.sol\":1644:1663  books[_ISBN].author */\n      0x01\n      add\n        /* \"perpustakaan.sol\":1665:1670  books */\n      0x00\n        /* \"perpustakaan.sol\":1665:1677  books[_ISBN] */\n      dup1\n        /* \"perpustakaan.sol\":1671:1676  _ISBN */\n      dup8\n        /* \"perpustakaan.sol\":1665:1677  books[_ISBN] */\n      dup2\n      mstore\n      0x20\n      add\n      swap1\n      dup2\n      mstore\n      0x20\n      add\n      0x00\n      keccak256\n        /* \"perpustakaan.sol\":1665:1682  books[_ISBN].ISBN */\n      0x02\n      add\n      sload\n        /* \"perpustakaan.sol\":1616:1683  return (books[_ISBN].title, books[_ISBN].author, books[_ISBN].ISBN) */\n      dup3\n      dup1\n      sload\n      tag_74\n      swap1\n      tag_55\n      jump\t// in\n    tag_74:\n      dup1\n      0x1f\n      add\n      0x20\n      dup1\n      swap2\n      div\n      mul\n      0x20\n      add\n      mload(0x40)\n      swap1\n      dup2\n      add\n      0x40\n      mstore\n      dup1\n      swap3\n      swap2\n      swap1\n      dup2\n      dup2\n      mstore\n      0x20\n      add\n      dup3\n      dup1\n      sload\n      tag_75\n      swap1\n      tag_55\n      jump\t// in\n    tag_75:\n      dup1\n      iszero\n      tag_76\n      jumpi\n      dup1\n      0x1f\n      lt\n      tag_77\n      jumpi\n      0x0100\n      dup1\n      dup4\n      sload\n      div\n      mul\n      dup4\n      mstore\n      swap2\n      0x20\n      add\n      swap2\n      jump(tag_76)\n    tag_77:\n      dup3\n      add\n      swap2\n      swap1\n      0x00\n      mstore\n      keccak256(0x00, 0x20)\n      swap1\n    tag_78:\n      dup2\n      sload\n      dup2\n      mstore\n      swap1\n      0x01\n      add\n      swap1\n      0x20\n      add\n      dup1\n      dup4\n      gt\n      tag_78\n      jumpi\n      dup3\n      swap1\n      sub\n      0x1f\n      and\n      dup3\n      add\n      swap2\n    tag_76:\n      pop\n      pop\n      pop\n      pop\n      pop\n      swap3\n      pop\n      dup2\n      dup1\n      sload\n      tag_79\n      swap1\n      tag_55\n      jump\t// in\n    tag_79:\n      dup1\n      0x1f\n      add\n      0x20\n      dup1\n      swap2\n      div\n      mul\n      0x20\n      add\n      mload(0x40)\n      swap1\n      dup2\n      add\n      0x40\n      mstore\n      dup1\n      swap3\n      swap2\n      swap1\n      dup2\n      dup2\n      mstore\n      0x20\n      add\n      dup3\n      dup1\n      sload\n      tag_80\n      swap1\n      tag_55\n      jump\t// in\n    tag_80:\n      dup1\n      iszero\n      tag_81\n      jumpi\n      dup1\n      0x1f\n      lt\n      tag_82\n      jumpi\n      0x0100\n      dup1\n      dup4\n      sload\n      div\n      mul\n      dup4\n      mstore\n      swap2\n      0x20\n      add\n      swap2\n      jump(tag_81)\n    tag_82:\n      dup3\n      add\n      swap2\n      swap1\n      0x00\n      mstore\n      keccak256(0x00, 0x20)\n      swap1\n    tag_83:\n      dup2\n      sload\n      dup2\n      mstore\n      swap1\n      0x01\n      add\n      swap1\n      0x20\n      add\n      dup1\n      dup4\n      gt\n      tag_83\n      jumpi\n      dup3\n      swap1\n      sub\n      0x1f\n      and\n      dup3\n      add\n      swap2\n    tag_81:\n      pop\n      pop\n      pop\n      pop\n      pop\n      swap2\n      pop\n      swap3\n      pop\n      swap3\n      pop\n      swap3\n      pop\n        /* \"perpustakaan.sol\":1431:1691  function getBook(uint256 _ISBN) public view returns (string memory, string memory, uint256) {... */\n      swap2\n      swap4\n      swap1\n      swap3\n      pop\n      jump\t// out\n    tag_50:\n      pop\n      dup1\n      sload\n      tag_84\n      swap1\n      tag_55\n      jump\t// in\n    tag_84:\n      0x00\n      dup3\n      sstore\n      dup1\n      0x1f\n      lt\n      tag_86\n      jumpi\n      pop\n      jump(tag_85)\n    tag_86:\n      0x1f\n      add\n      0x20\n      swap1\n      div\n      swap1\n      0x00\n      mstore\n      keccak256(0x00, 0x20)\n      swap1\n      dup2\n      add\n      swap1\n      tag_87\n      swap2\n      swap1\n      tag_88\n      jump\t// in\n    tag_87:\n    tag_85:\n      pop\n      jump\t// out\n    tag_88:\n    tag_89:\n      dup1\n      dup3\n      gt\n      iszero\n      tag_90\n      jumpi\n      0x00\n      dup2\n      0x00\n      swap1\n      sstore\n      pop\n      0x01\n      add\n      jump(tag_89)\n    tag_90:\n      pop\n      swap1\n      jump\t// out\n        /* \"#utility.yul\":7:82   */\n    tag_91:\n        /* \"#utility.yul\":40:46   */\n      0x00\n        /* \"#utility.yul\":73:75   */\n      0x40\n        /* \"#utility.yul\":67:76   */\n      mload\n        /* \"#utility.yul\":57:76   */\n      swap1\n      pop\n        /* \"#utility.yul\":7:82   */\n      swap1\n      jump\t// out\n        /* \"#utility.yul\":88:205   */\n    tag_92:\n        /* \"#utility.yul\":197:198   */\n      0x00\n        /* \"#utility.yul\":194:195   */\n      dup1\n        /* \"#utility.yul\":187:199   */\n      revert\n        /* \"#utility.yul\":211:328   */\n    tag_93:\n        /* \"#utility.yul\":320:321   */\n      0x00\n        /* \"#utility.yul\":317:318   */\n      dup1\n        /* \"#utility.yul\":310:322   */\n      revert\n        /* \"#utility.yul\":334:451   */\n    tag_94:\n        /* \"#utility.yul\":443:444   */\n      0x00\n        /* \"#utility.yul\":440:441   */\n      dup1\n        /* \"#utility.yul\":433:445   */\n      revert\n        /* \"#utility.yul\":457:574   */\n    tag_95:\n        /* \"#utility.yul\":566:567   */\n      0x00\n        /* \"#utility.yul\":563:564   */\n      dup1\n        /* \"#utility.yul\":556:568   */\n      revert\n        /* \"#utility.yul\":580:682   */\n    tag_96:\n        /* \"#utility.yul\":621:627   */\n      0x00\n        /* \"#utility.yul\":672:674   */\n      0x1f\n        /* \"#utility.yul\":668:675   */\n      not\n        /* \"#utility.yul\":663:665   */\n      0x1f\n        /* \"#utility.yul\":656:661   */\n      dup4\n        /* \"#utility.yul\":652:666   */\n      add\n        /* \"#utility.yul\":648:676   */\n      and\n        /* \"#utility.yul\":638:676   */\n      swap1\n      pop\n        /* \"#utility.yul\":580:682   */\n      swap2\n      swap1\n      pop\n      jump\t// out\n        /* \"#utility.yul\":688:868   */\n    tag_97:\n        /* \"#utility.yul\":736:813   */\n      0x4e487b7100000000000000000000000000000000000000000000000000000000\n        /* \"#utility.yul\":733:734   */\n      0x00\n        /* \"#utility.yul\":726:814   */\n      mstore\n        /* \"#utility.yul\":833:837   */\n      0x41\n        /* \"#utility.yul\":830:831   */\n      0x04\n        /* \"#utility.yul\":823:838   */\n      mstore\n        /* \"#utility.yul\":857:861   */\n      0x24\n        /* \"#utility.yul\":854:855   */\n      0x00\n        /* \"#utility.yul\":847:862   */\n      revert\n        /* \"#utility.yul\":874:1155   */\n    tag_98:\n        /* \"#utility.yul\":957:984   */\n      tag_142\n        /* \"#utility.yul\":979:983   */\n      dup3\n        /* \"#utility.yul\":957:984   */\n      tag_96\n      jump\t// in\n    tag_142:\n        /* \"#utility.yul\":949:955   */\n      dup2\n        /* \"#utility.yul\":945:985   */\n      add\n        /* \"#utility.yul\":1087:1093   */\n      dup2\n        /* \"#utility.yul\":1075:1085   */\n      dup2\n        /* \"#utility.yul\":1072:1094   */\n      lt\n        /* \"#utility.yul\":1051:1069   */\n      0xffffffffffffffff\n        /* \"#utility.yul\":1039:1049   */\n      dup3\n        /* \"#utility.yul\":1036:1070   */\n      gt\n        /* \"#utility.yul\":1033:1095   */\n      or\n        /* \"#utility.yul\":1030:1118   */\n      iszero\n      tag_143\n      jumpi\n        /* \"#utility.yul\":1098:1116   */\n      tag_144\n      tag_97\n      jump\t// in\n    tag_144:\n        /* \"#utility.yul\":1030:1118   */\n    tag_143:\n        /* \"#utility.yul\":1138:1148   */\n      dup1\n        /* \"#utility.yul\":1134:1136   */\n      0x40\n        /* \"#utility.yul\":1127:1149   */\n      mstore\n        /* \"#utility.yul\":917:1155   */\n      pop\n        /* \"#utility.yul\":874:1155   */\n      pop\n      pop\n      jump\t// out\n        /* \"#utility.yul\":1161:1290   */\n    tag_99:\n        /* \"#utility.yul\":1195:1201   */\n      0x00\n        /* \"#utility.yul\":1222:1242   */\n      tag_146\n      tag_91\n      jump\t// in\n    tag_146:\n        /* \"#utility.yul\":1212:1242   */\n      swap1\n      pop\n        /* \"#utility.yul\":1251:1284   */\n      tag_147\n        /* \"#utility.yul\":1279:1283   */\n      dup3\n        /* \"#utility.yul\":1271:1277   */\n      dup3\n        /* \"#utility.yul\":1251:1284   */\n      tag_98\n      jump\t// in\n    tag_147:\n        /* \"#utility.yul\":1161:1290   */\n      swap2\n      swap1\n      pop\n      jump\t// out\n        /* \"#utility.yul\":1296:1604   */\n    tag_100:\n        /* \"#utility.yul\":1358:1362   */\n      0x00\n        /* \"#utility.yul\":1448:1466   */\n      0xffffffffffffffff\n        /* \"#utility.yul\":1440:1446   */\n      dup3\n        /* \"#utility.yul\":1437:1467   */\n      gt\n        /* \"#utility.yul\":1434:1490   */\n      iszero\n      tag_149\n      jumpi\n        /* \"#utility.yul\":1470:1488   */\n      tag_150\n      tag_97\n      jump\t// in\n    tag_150:\n        /* \"#utility.yul\":1434:1490   */\n    tag_149:\n        /* \"#utility.yul\":1508:1537   */\n      tag_151\n        /* \"#utility.yul\":1530:1536   */\n      dup3\n        /* \"#utility.yul\":1508:1537   */\n      tag_96\n      jump\t// in\n    tag_151:\n        /* \"#utility.yul\":1500:1537   */\n      swap1\n      pop\n        /* \"#utility.yul\":1592:1596   */\n      0x20\n        /* \"#utility.yul\":1586:1590   */\n      dup2\n        /* \"#utility.yul\":1582:1597   */\n      add\n        /* \"#utility.yul\":1574:1597   */\n      swap1\n      pop\n        /* \"#utility.yul\":1296:1604   */\n      swap2\n      swap1\n      pop\n      jump\t// out\n        /* \"#utility.yul\":1610:1756   */\n    tag_101:\n        /* \"#utility.yul\":1707:1713   */\n      dup3\n        /* \"#utility.yul\":1702:1705   */\n      dup2\n        /* \"#utility.yul\":1697:1700   */\n      dup4\n        /* \"#utility.yul\":1684:1714   */\n      calldatacopy\n        /* \"#utility.yul\":1748:1749   */\n      0x00\n        /* \"#utility.yul\":1739:1745   */\n      dup4\n        /* \"#utility.yul\":1734:1737   */\n      dup4\n        /* \"#utility.yul\":1730:1746   */\n      add\n        /* \"#utility.yul\":1723:1750   */\n      mstore\n        /* \"#utility.yul\":1610:1756   */\n      pop\n      pop\n      pop\n      jump\t// out\n        /* \"#utility.yul\":1762:2187   */\n    tag_102:\n        /* \"#utility.yul\":1840:1845   */\n      0x00\n        /* \"#utility.yul\":1865:1931   */\n      tag_154\n        /* \"#utility.yul\":1881:1930   */\n      tag_155\n        /* \"#utility.yul\":1923:1929   */\n      dup5\n        /* \"#utility.yul\":1881:1930   */\n      tag_100\n      jump\t// in\n    tag_155:\n        /* \"#utility.yul\":1865:1931   */\n      tag_99\n      jump\t// in\n    tag_154:\n        /* \"#utility.yul\":1856:1931   */\n      swap1\n      pop\n        /* \"#utility.yul\":1954:1960   */\n      dup3\n        /* \"#utility.yul\":1947:1952   */\n      dup2\n        /* \"#utility.yul\":1940:1961   */\n      mstore\n        /* \"#utility.yul\":1992:1996   */\n      0x20\n        /* \"#utility.yul\":1985:1990   */\n      dup2\n        /* \"#utility.yul\":1981:1997   */\n      add\n        /* \"#utility.yul\":2030:2033   */\n      dup5\n        /* \"#utility.yul\":2021:2027   */\n      dup5\n        /* \"#utility.yul\":2016:2019   */\n      dup5\n        /* \"#utility.yul\":2012:2028   */\n      add\n        /* \"#utility.yul\":2009:2034   */\n      gt\n        /* \"#utility.yul\":2006:2118   */\n      iszero\n      tag_156\n      jumpi\n        /* \"#utility.yul\":2037:2116   */\n      tag_157\n      tag_95\n      jump\t// in\n    tag_157:\n        /* \"#utility.yul\":2006:2118   */\n    tag_156:\n        /* \"#utility.yul\":2127:2181   */\n      tag_158\n        /* \"#utility.yul\":2174:2180   */\n      dup5\n        /* \"#utility.yul\":2169:2172   */\n      dup3\n        /* \"#utility.yul\":2164:2167   */\n      dup6\n        /* \"#utility.yul\":2127:2181   */\n      tag_101\n      jump\t// in\n    tag_158:\n        /* \"#utility.yul\":1846:2187   */\n      pop\n        /* \"#utility.yul\":1762:2187   */\n      swap4\n      swap3\n      pop\n      pop\n      pop\n      jump\t// out\n        /* \"#utility.yul\":2207:2547   */\n    tag_103:\n        /* \"#utility.yul\":2263:2268   */\n      0x00\n        /* \"#utility.yul\":2312:2315   */\n      dup3\n        /* \"#utility.yul\":2305:2309   */\n      0x1f\n        /* \"#utility.yul\":2297:2303   */\n      dup4\n        /* \"#utility.yul\":2293:2310   */\n      add\n        /* \"#utility.yul\":2289:2316   */\n      slt\n        /* \"#utility.yul\":2279:2401   */\n      tag_160\n      jumpi\n        /* \"#utility.yul\":2320:2399   */\n      tag_161\n      tag_94\n      jump\t// in\n    tag_161:\n        /* \"#utility.yul\":2279:2401   */\n    tag_160:\n        /* \"#utility.yul\":2437:2443   */\n      dup2\n        /* \"#utility.yul\":2424:2444   */\n      calldataload\n        /* \"#utility.yul\":2462:2541   */\n      tag_162\n        /* \"#utility.yul\":2537:2540   */\n      dup5\n        /* \"#utility.yul\":2529:2535   */\n      dup3\n        /* \"#utility.yul\":2522:2526   */\n      0x20\n        /* \"#utility.yul\":2514:2520   */\n      dup7\n        /* \"#utility.yul\":2510:2527   */\n      add\n        /* \"#utility.yul\":2462:2541   */\n      tag_102\n      jump\t// in\n    tag_162:\n        /* \"#utility.yul\":2453:2541   */\n      swap2\n      pop\n        /* \"#utility.yul\":2269:2547   */\n      pop\n        /* \"#utility.yul\":2207:2547   */\n      swap3\n      swap2\n      pop\n      pop\n      jump\t// out\n        /* \"#utility.yul\":2553:2630   */\n    tag_104:\n        /* \"#utility.yul\":2590:2597   */\n      0x00\n        /* \"#utility.yul\":2619:2624   */\n      dup2\n        /* \"#utility.yul\":2608:2624   */\n      swap1\n      pop\n        /* \"#utility.yul\":2553:2630   */\n      swap2\n      swap1\n      pop\n      jump\t// out\n        /* \"#utility.yul\":2636:2758   */\n    tag_105:\n        /* \"#utility.yul\":2709:2733   */\n      tag_165\n        /* \"#utility.yul\":2727:2732   */\n      dup2\n        /* \"#utility.yul\":2709:2733   */\n      tag_104\n      jump\t// in\n    tag_165:\n        /* \"#utility.yul\":2702:2707   */\n      dup2\n        /* \"#utility.yul\":2699:2734   */\n      eq\n        /* \"#utility.yul\":2689:2752   */\n      tag_166\n      jumpi\n        /* \"#utility.yul\":2748:2749   */\n      0x00\n        /* \"#utility.yul\":2745:2746   */\n      dup1\n        /* \"#utility.yul\":2738:2750   */\n      revert\n        /* \"#utility.yul\":2689:2752   */\n    tag_166:\n        /* \"#utility.yul\":2636:2758   */\n      pop\n      jump\t// out\n        /* \"#utility.yul\":2764:2903   */\n    tag_106:\n        /* \"#utility.yul\":2810:2815   */\n      0x00\n        /* \"#utility.yul\":2848:2854   */\n      dup2\n        /* \"#utility.yul\":2835:2855   */\n      calldataload\n        /* \"#utility.yul\":2826:2855   */\n      swap1\n      pop\n        /* \"#utility.yul\":2864:2897   */\n      tag_168\n        /* \"#utility.yul\":2891:2896   */\n      dup2\n        /* \"#utility.yul\":2864:2897   */\n      tag_105\n      jump\t// in\n    tag_168:\n        /* \"#utility.yul\":2764:2903   */\n      swap3\n      swap2\n      pop\n      pop\n      jump\t// out\n        /* \"#utility.yul\":2909:3888   */\n    tag_11:\n        /* \"#utility.yul\":3006:3012   */\n      0x00\n        /* \"#utility.yul\":3014:3020   */\n      dup1\n        /* \"#utility.yul\":3022:3028   */\n      0x00\n        /* \"#utility.yul\":3071:3073   */\n      0x60\n        /* \"#utility.yul\":3059:3068   */\n      dup5\n        /* \"#utility.yul\":3050:3057   */\n      dup7\n        /* \"#utility.yul\":3046:3069   */\n      sub\n        /* \"#utility.yul\":3042:3074   */\n      slt\n        /* \"#utility.yul\":3039:3158   */\n      iszero\n      tag_170\n      jumpi\n        /* \"#utility.yul\":3077:3156   */\n      tag_171\n      tag_92\n      jump\t// in\n    tag_171:\n        /* \"#utility.yul\":3039:3158   */\n    tag_170:\n        /* \"#utility.yul\":3225:3226   */\n      0x00\n        /* \"#utility.yul\":3214:3223   */\n      dup5\n        /* \"#utility.yul\":3210:3227   */\n      add\n        /* \"#utility.yul\":3197:3228   */\n      calldataload\n        /* \"#utility.yul\":3255:3273   */\n      0xffffffffffffffff\n        /* \"#utility.yul\":3247:3253   */\n      dup2\n        /* \"#utility.yul\":3244:3274   */\n      gt\n        /* \"#utility.yul\":3241:3358   */\n      iszero\n      tag_172\n      jumpi\n        /* \"#utility.yul\":3277:3356   */\n      tag_173\n      tag_93\n      jump\t// in\n    tag_173:\n        /* \"#utility.yul\":3241:3358   */\n    tag_172:\n        /* \"#utility.yul\":3382:3445   */\n      tag_174\n        /* \"#utility.yul\":3437:3444   */\n      dup7\n        /* \"#utility.yul\":3428:3434   */\n      dup3\n        /* \"#utility.yul\":3417:3426   */\n      dup8\n        /* \"#utility.yul\":3413:3435   */\n      add\n        /* \"#utility.yul\":3382:3445   */\n      tag_103\n      jump\t// in\n    tag_174:\n        /* \"#utility.yul\":3372:3445   */\n      swap4\n      pop\n        /* \"#utility.yul\":3168:3455   */\n      pop\n        /* \"#utility.yul\":3522:3524   */\n      0x20\n        /* \"#utility.yul\":3511:3520   */\n      dup5\n        /* \"#utility.yul\":3507:3525   */\n      add\n        /* \"#utility.yul\":3494:3526   */\n      calldataload\n        /* \"#utility.yul\":3553:3571   */\n      0xffffffffffffffff\n        /* \"#utility.yul\":3545:3551   */\n      dup2\n        /* \"#utility.yul\":3542:3572   */\n      gt\n        /* \"#utility.yul\":3539:3656   */\n      iszero\n      tag_175\n      jumpi\n        /* \"#utility.yul\":3575:3654   */\n      tag_176\n      tag_93\n      jump\t// in\n    tag_176:\n        /* \"#utility.yul\":3539:3656   */\n    tag_175:\n        /* \"#utility.yul\":3680:3743   */\n      tag_177\n        /* \"#utility.yul\":3735:3742   */\n      dup7\n        /* \"#utility.yul\":3726:3732   */\n      dup3\n        /* \"#utility.yul\":3715:3724   */\n      dup8\n        /* \"#utility.yul\":3711:3733   */\n      add\n        /* \"#utility.yul\":3680:3743   */\n      tag_103\n      jump\t// in\n    tag_177:\n        /* \"#utility.yul\":3670:3743   */\n      swap3\n      pop\n        /* \"#utility.yul\":3465:3753   */\n      pop\n        /* \"#utility.yul\":3792:3794   */\n      0x40\n        /* \"#utility.yul\":3818:3871   */\n      tag_178\n        /* \"#utility.yul\":3863:3870   */\n      dup7\n        /* \"#utility.yul\":3854:3860   */\n      dup3\n        /* \"#utility.yul\":3843:3852   */\n      dup8\n        /* \"#utility.yul\":3839:3861   */\n      add\n        /* \"#utility.yul\":3818:3871   */\n      tag_106\n      jump\t// in\n    tag_178:\n        /* \"#utility.yul\":3808:3871   */\n      swap2\n      pop\n        /* \"#utility.yul\":3763:3881   */\n      pop\n        /* \"#utility.yul\":2909:3888   */\n      swap3\n      pop\n      swap3\n      pop\n      swap3\n      jump\t// out\n        /* \"#utility.yul\":3894:4223   */\n    tag_15:\n        /* \"#utility.yul\":3953:3959   */\n      0x00\n        /* \"#utility.yul\":4002:4004   */\n      0x20\n        /* \"#utility.yul\":3990:3999   */\n      dup3\n        /* \"#utility.yul\":3981:3988   */\n      dup5\n        /* \"#utility.yul\":3977:4000   */\n      sub\n        /* \"#utility.yul\":3973:4005   */\n      slt\n        /* \"#utility.yul\":3970:4089   */\n      iszero\n      tag_180\n      jumpi\n        /* \"#utility.yul\":4008:4087   */\n      tag_181\n      tag_92\n      jump\t// in\n    tag_181:\n        /* \"#utility.yul\":3970:4089   */\n    tag_180:\n        /* \"#utility.yul\":4128:4129   */\n      0x00\n        /* \"#utility.yul\":4153:4206   */\n      tag_182\n        /* \"#utility.yul\":4198:4205   */\n      dup5\n        /* \"#utility.yul\":4189:4195   */\n      dup3\n        /* \"#utility.yul\":4178:4187   */\n      dup6\n        /* \"#utility.yul\":4174:4196   */\n      add\n        /* \"#utility.yul\":4153:4206   */\n      tag_106\n      jump\t// in\n    tag_182:\n        /* \"#utility.yul\":4143:4206   */\n      swap2\n      pop\n        /* \"#utility.yul\":4099:4216   */\n      pop\n        /* \"#utility.yul\":3894:4223   */\n      swap3\n      swap2\n      pop\n      pop\n      jump\t// out\n        /* \"#utility.yul\":4229:4328   */\n    tag_107:\n        /* \"#utility.yul\":4281:4287   */\n      0x00\n        /* \"#utility.yul\":4315:4320   */\n      dup2\n        /* \"#utility.yul\":4309:4321   */\n      mload\n        /* \"#utility.yul\":4299:4321   */\n      swap1\n      pop\n        /* \"#utility.yul\":4229:4328   */\n      swap2\n      swap1\n      pop\n      jump\t// out\n        /* \"#utility.yul\":4334:4503   */\n    tag_108:\n        /* \"#utility.yul\":4418:4429   */\n      0x00\n        /* \"#utility.yul\":4452:4458   */\n      dup3\n        /* \"#utility.yul\":4447:4450   */\n      dup3\n        /* \"#utility.yul\":4440:4459   */\n      mstore\n        /* \"#utility.yul\":4492:4496   */\n      0x20\n        /* \"#utility.yul\":4487:4490   */\n      dup3\n        /* \"#utility.yul\":4483:4497   */\n      add\n        /* \"#utility.yul\":4468:4497   */\n      swap1\n      pop\n        /* \"#utility.yul\":4334:4503   */\n      swap3\n      swap2\n      pop\n      pop\n      jump\t// out\n        /* \"#utility.yul\":4509:4755   */\n    tag_109:\n        /* \"#utility.yul\":4590:4591   */\n      0x00\n        /* \"#utility.yul\":4600:4713   */\n    tag_186:\n        /* \"#utility.yul\":4614:4620   */\n      dup4\n        /* \"#utility.yul\":4611:4612   */\n      dup2\n        /* \"#utility.yul\":4608:4621   */\n      lt\n        /* \"#utility.yul\":4600:4713   */\n      iszero\n      tag_188\n      jumpi\n        /* \"#utility.yul\":4699:4700   */\n      dup1\n        /* \"#utility.yul\":4694:4697   */\n      dup3\n        /* \"#utility.yul\":4690:4701   */\n      add\n        /* \"#utility.yul\":4684:4702   */\n      mload\n        /* \"#utility.yul\":4680:4681   */\n      dup2\n        /* \"#utility.yul\":4675:4678   */\n      dup5\n        /* \"#utility.yul\":4671:4682   */\n      add\n        /* \"#utility.yul\":4664:4703   */\n      mstore\n        /* \"#utility.yul\":4636:4638   */\n      0x20\n        /* \"#utility.yul\":4633:4634   */\n      dup2\n        /* \"#utility.yul\":4629:4639   */\n      add\n        /* \"#utility.yul\":4624:4639   */\n      swap1\n      pop\n        /* \"#utility.yul\":4600:4713   */\n      jump(tag_186)\n    tag_188:\n        /* \"#utility.yul\":4747:4748   */\n      0x00\n        /* \"#utility.yul\":4738:4744   */\n      dup5\n        /* \"#utility.yul\":4733:4736   */\n      dup5\n        /* \"#utility.yul\":4729:4745   */\n      add\n        /* \"#utility.yul\":4722:4749   */\n      mstore\n        /* \"#utility.yul\":4571:4755   */\n      pop\n        /* \"#utility.yul\":4509:4755   */\n      pop\n      pop\n      pop\n      jump\t// out\n        /* \"#utility.yul\":4761:5138   */\n    tag_110:\n        /* \"#utility.yul\":4849:4852   */\n      0x00\n        /* \"#utility.yul\":4877:4916   */\n      tag_190\n        /* \"#utility.yul\":4910:4915   */\n      dup3\n        /* \"#utility.yul\":4877:4916   */\n      tag_107\n      jump\t// in\n    tag_190:\n        /* \"#utility.yul\":4932:5003   */\n      tag_191\n        /* \"#utility.yul\":4996:5002   */\n      dup2\n        /* \"#utility.yul\":4991:4994   */\n      dup6\n        /* \"#utility.yul\":4932:5003   */\n      tag_108\n      jump\t// in\n    tag_191:\n        /* \"#utility.yul\":4925:5003   */\n      swap4\n      pop\n        /* \"#utility.yul\":5012:5077   */\n      tag_192\n        /* \"#utility.yul\":5070:5076   */\n      dup2\n        /* \"#utility.yul\":5065:5068   */\n      dup6\n        /* \"#utility.yul\":5058:5062   */\n      0x20\n        /* \"#utility.yul\":5051:5056   */\n      dup7\n        /* \"#utility.yul\":5047:5063   */\n      add\n        /* \"#utility.yul\":5012:5077   */\n      tag_109\n      jump\t// in\n    tag_192:\n        /* \"#utility.yul\":5102:5131   */\n      tag_193\n        /* \"#utility.yul\":5124:5130   */\n      dup2\n        /* \"#utility.yul\":5102:5131   */\n      tag_96\n      jump\t// in\n    tag_193:\n        /* \"#utility.yul\":5097:5100   */\n      dup5\n        /* \"#utility.yul\":5093:5132   */\n      add\n        /* \"#utility.yul\":5086:5132   */\n      swap2\n      pop\n        /* \"#utility.yul\":4853:5138   */\n      pop\n        /* \"#utility.yul\":4761:5138   */\n      swap3\n      swap2\n      pop\n      pop\n      jump\t// out\n        /* \"#utility.yul\":5144:5262   */\n    tag_111:\n        /* \"#utility.yul\":5231:5255   */\n      tag_195\n        /* \"#utility.yul\":5249:5254   */\n      dup2\n        /* \"#utility.yul\":5231:5255   */\n      tag_104\n      jump\t// in\n    tag_195:\n        /* \"#utility.yul\":5226:5229   */\n      dup3\n        /* \"#utility.yul\":5219:5256   */\n      mstore\n        /* \"#utility.yul\":5144:5262   */\n      pop\n      pop\n      jump\t// out\n        /* \"#utility.yul\":5268:5892   */\n    tag_21:\n        /* \"#utility.yul\":5457:5461   */\n      0x00\n        /* \"#utility.yul\":5495:5497   */\n      0x60\n        /* \"#utility.yul\":5484:5493   */\n      dup3\n        /* \"#utility.yul\":5480:5498   */\n      add\n        /* \"#utility.yul\":5472:5498   */\n      swap1\n      pop\n        /* \"#utility.yul\":5544:5553   */\n      dup2\n        /* \"#utility.yul\":5538:5542   */\n      dup2\n        /* \"#utility.yul\":5534:5554   */\n      sub\n        /* \"#utility.yul\":5530:5531   */\n      0x00\n        /* \"#utility.yul\":5519:5528   */\n      dup4\n        /* \"#utility.yul\":5515:5532   */\n      add\n        /* \"#utility.yul\":5508:5555   */\n      mstore\n        /* \"#utility.yul\":5572:5650   */\n      tag_197\n        /* \"#utility.yul\":5645:5649   */\n      dup2\n        /* \"#utility.yul\":5636:5642   */\n      dup7\n        /* \"#utility.yul\":5572:5650   */\n      tag_110\n      jump\t// in\n    tag_197:\n        /* \"#utility.yul\":5564:5650   */\n      swap1\n      pop\n        /* \"#utility.yul\":5697:5706   */\n      dup2\n        /* \"#utility.yul\":5691:5695   */\n      dup2\n        /* \"#utility.yul\":5687:5707   */\n      sub\n        /* \"#utility.yul\":5682:5684   */\n      0x20\n        /* \"#utility.yul\":5671:5680   */\n      dup4\n        /* \"#utility.yul\":5667:5685   */\n      add\n        /* \"#utility.yul\":5660:5708   */\n      mstore\n        /* \"#utility.yul\":5725:5803   */\n      tag_198\n        /* \"#utility.yul\":5798:5802   */\n      dup2\n        /* \"#utility.yul\":5789:5795   */\n      dup6\n        /* \"#utility.yul\":5725:5803   */\n      tag_110\n      jump\t// in\n    tag_198:\n        /* \"#utility.yul\":5717:5803   */\n      swap1\n      pop\n        /* \"#utility.yul\":5813:5885   */\n      tag_199\n        /* \"#utility.yul\":5881:5883   */\n      0x40\n        /* \"#utility.yul\":5870:5879   */\n      dup4\n        /* \"#utility.yul\":5866:5884   */\n      add\n        /* \"#utility.yul\":5857:5863   */\n      dup5\n        /* \"#utility.yul\":5813:5885   */\n      tag_111\n      jump\t// in\n    tag_199:\n        /* \"#utility.yul\":5268:5892   */\n      swap5\n      swap4\n      pop\n      pop\n      pop\n      pop\n      jump\t// out\n        /* \"#utility.yul\":5898:6877   */\n    tag_24:\n        /* \"#utility.yul\":5995:6001   */\n      0x00\n        /* \"#utility.yul\":6003:6009   */\n      dup1\n        /* \"#utility.yul\":6011:6017   */\n      0x00\n        /* \"#utility.yul\":6060:6062   */\n      0x60\n        /* \"#utility.yul\":6048:6057   */\n      dup5\n        /* \"#utility.yul\":6039:6046   */\n      dup7\n        /* \"#utility.yul\":6035:6058   */\n      sub\n        /* \"#utility.yul\":6031:6063   */\n      slt\n        /* \"#utility.yul\":6028:6147   */\n      iszero\n      tag_201\n      jumpi\n        /* \"#utility.yul\":6066:6145   */\n      tag_202\n      tag_92\n      jump\t// in\n    tag_202:\n        /* \"#utility.yul\":6028:6147   */\n    tag_201:\n        /* \"#utility.yul\":6186:6187   */\n      0x00\n        /* \"#utility.yul\":6211:6264   */\n      tag_203\n        /* \"#utility.yul\":6256:6263   */\n      dup7\n        /* \"#utility.yul\":6247:6253   */\n      dup3\n        /* \"#utility.yul\":6236:6245   */\n      dup8\n        /* \"#utility.yul\":6232:6254   */\n      add\n        /* \"#utility.yul\":6211:6264   */\n      tag_106\n      jump\t// in\n    tag_203:\n        /* \"#utility.yul\":6201:6264   */\n      swap4\n      pop\n        /* \"#utility.yul\":6157:6274   */\n      pop\n        /* \"#utility.yul\":6341:6343   */\n      0x20\n        /* \"#utility.yul\":6330:6339   */\n      dup5\n        /* \"#utility.yul\":6326:6344   */\n      add\n        /* \"#utility.yul\":6313:6345   */\n      calldataload\n        /* \"#utility.yul\":6372:6390   */\n      0xffffffffffffffff\n        /* \"#utility.yul\":6364:6370   */\n      dup2\n        /* \"#utility.yul\":6361:6391   */\n      gt\n        /* \"#utility.yul\":6358:6475   */\n      iszero\n      tag_204\n      jumpi\n        /* \"#utility.yul\":6394:6473   */\n      tag_205\n      tag_93\n      jump\t// in\n    tag_205:\n        /* \"#utility.yul\":6358:6475   */\n    tag_204:\n        /* \"#utility.yul\":6499:6562   */\n      tag_206\n        /* \"#utility.yul\":6554:6561   */\n      dup7\n        /* \"#utility.yul\":6545:6551   */\n      dup3\n        /* \"#utility.yul\":6534:6543   */\n      dup8\n        /* \"#utility.yul\":6530:6552   */\n      add\n        /* \"#utility.yul\":6499:6562   */\n      tag_103\n      jump\t// in\n    tag_206:\n        /* \"#utility.yul\":6489:6562   */\n      swap3\n      pop\n        /* \"#utility.yul\":6284:6572   */\n      pop\n        /* \"#utility.yul\":6639:6641   */\n      0x40\n        /* \"#utility.yul\":6628:6637   */\n      dup5\n        /* \"#utility.yul\":6624:6642   */\n      add\n        /* \"#utility.yul\":6611:6643   */\n      calldataload\n        /* \"#utility.yul\":6670:6688   */\n      0xffffffffffffffff\n        /* \"#utility.yul\":6662:6668   */\n      dup2\n        /* \"#utility.yul\":6659:6689   */\n      gt\n        /* \"#utility.yul\":6656:6773   */\n      iszero\n      tag_207\n      jumpi\n        /* \"#utility.yul\":6692:6771   */\n      tag_208\n      tag_93\n      jump\t// in\n    tag_208:\n        /* \"#utility.yul\":6656:6773   */\n    tag_207:\n        /* \"#utility.yul\":6797:6860   */\n      tag_209\n        /* \"#utility.yul\":6852:6859   */\n      dup7\n        /* \"#utility.yul\":6843:6849   */\n      dup3\n        /* \"#utility.yul\":6832:6841   */\n      dup8\n        /* \"#utility.yul\":6828:6850   */\n      add\n        /* \"#utility.yul\":6797:6860   */\n      tag_103\n      jump\t// in\n    tag_209:\n        /* \"#utility.yul\":6787:6860   */\n      swap2\n      pop\n        /* \"#utility.yul\":6582:6870   */\n      pop\n        /* \"#utility.yul\":5898:6877   */\n      swap3\n      pop\n      swap3\n      pop\n      swap3\n      jump\t// out\n        /* \"#utility.yul\":6883:7105   */\n    tag_29:\n        /* \"#utility.yul\":6976:6980   */\n      0x00\n        /* \"#utility.yul\":7014:7016   */\n      0x20\n        /* \"#utility.yul\":7003:7012   */\n      dup3\n        /* \"#utility.yul\":6999:7017   */\n      add\n        /* \"#utility.yul\":6991:7017   */\n      swap1\n      pop\n        /* \"#utility.yul\":7027:7098   */\n      tag_211\n        /* \"#utility.yul\":7095:7096   */\n      0x00\n        /* \"#utility.yul\":7084:7093   */\n      dup4\n        /* \"#utility.yul\":7080:7097   */\n      add\n        /* \"#utility.yul\":7071:7077   */\n      dup5\n        /* \"#utility.yul\":7027:7098   */\n      tag_111\n      jump\t// in\n    tag_211:\n        /* \"#utility.yul\":6883:7105   */\n      swap3\n      swap2\n      pop\n      pop\n      jump\t// out\n        /* \"#utility.yul\":7111:7332   */\n    tag_112:\n        /* \"#utility.yul\":7251:7285   */\n      0x426f6f6b20776974682074686973204953424e20616c72656164792065786973\n        /* \"#utility.yul\":7247:7248   */\n      0x00\n        /* \"#utility.yul\":7239:7245   */\n      dup3\n        /* \"#utility.yul\":7235:7249   */\n      add\n        /* \"#utility.yul\":7228:7286   */\n      mstore\n        /* \"#utility.yul\":7320:7324   */\n      0x7473000000000000000000000000000000000000000000000000000000000000\n        /* \"#utility.yul\":7315:7317   */\n      0x20\n        /* \"#utility.yul\":7307:7313   */\n      dup3\n        /* \"#utility.yul\":7303:7318   */\n      add\n        /* \"#utility.yul\":7296:7325   */\n      mstore\n        /* \"#utility.yul\":7111:7332   */\n      pop\n      jump\t// out\n        /* \"#utility.yul\":7338:7704   */\n    tag_113:\n        /* \"#utility.yul\":7480:7483   */\n      0x00\n        /* \"#utility.yul\":7501:7568   */\n      tag_214\n        /* \"#utility.yul\":7565:7567   */\n      0x22\n        /* \"#utility.yul\":7560:7563   */\n      dup4\n        /* \"#utility.yul\":7501:7568   */\n      tag_108\n      jump\t// in\n    tag_214:\n        /* \"#utility.yul\":7494:7568   */\n      swap2\n      pop\n        /* \"#utility.yul\":7577:7670   */\n      tag_215\n        /* \"#utility.yul\":7666:7669   */\n      dup3\n        /* \"#utility.yul\":7577:7670   */\n      tag_112\n      jump\t// in\n    tag_215:\n        /* \"#utility.yul\":7695:7697   */\n      0x40\n        /* \"#utility.yul\":7690:7693   */\n      dup3\n        /* \"#utility.yul\":7686:7698   */\n      add\n        /* \"#utility.yul\":7679:7698   */\n      swap1\n      pop\n        /* \"#utility.yul\":7338:7704   */\n      swap2\n      swap1\n      pop\n      jump\t// out\n        /* \"#utility.yul\":7710:8129   */\n    tag_37:\n        /* \"#utility.yul\":7876:7880   */\n      0x00\n        /* \"#utility.yul\":7914:7916   */\n      0x20\n        /* \"#utility.yul\":7903:7912   */\n      dup3\n        /* \"#utility.yul\":7899:7917   */\n      add\n        /* \"#utility.yul\":7891:7917   */\n      swap1\n      pop\n        /* \"#utility.yul\":7963:7972   */\n      dup2\n        /* \"#utility.yul\":7957:7961   */\n      dup2\n        /* \"#utility.yul\":7953:7973   */\n      sub\n        /* \"#utility.yul\":7949:7950   */\n      0x00\n        /* \"#utility.yul\":7938:7947   */\n      dup4\n        /* \"#utility.yul\":7934:7951   */\n      add\n        /* \"#utility.yul\":7927:7974   */\n      mstore\n        /* \"#utility.yul\":7991:8122   */\n      tag_217\n        /* \"#utility.yul\":8117:8121   */\n      dup2\n        /* \"#utility.yul\":7991:8122   */\n      tag_113\n      jump\t// in\n    tag_217:\n        /* \"#utility.yul\":7983:8122   */\n      swap1\n      pop\n        /* \"#utility.yul\":7710:8129   */\n      swap2\n      swap1\n      pop\n      jump\t// out\n        /* \"#utility.yul\":8135:8315   */\n    tag_114:\n        /* \"#utility.yul\":8183:8260   */\n      0x4e487b7100000000000000000000000000000000000000000000000000000000\n        /* \"#utility.yul\":8180:8181   */\n      0x00\n        /* \"#utility.yul\":8173:8261   */\n      mstore\n        /* \"#utility.yul\":8280:8284   */\n      0x22\n        /* \"#utility.yul\":8277:8278   */\n      0x04\n        /* \"#utility.yul\":8270:8285   */\n      mstore\n        /* \"#utility.yul\":8304:8308   */\n      0x24\n        /* \"#utility.yul\":8301:8302   */\n      0x00\n        /* \"#utility.yul\":8294:8309   */\n      revert\n        /* \"#utility.yul\":8321:8641   */\n    tag_55:\n        /* \"#utility.yul\":8365:8371   */\n      0x00\n        /* \"#utility.yul\":8402:8403   */\n      0x02\n        /* \"#utility.yul\":8396:8400   */\n      dup3\n        /* \"#utility.yul\":8392:8404   */\n      div\n        /* \"#utility.yul\":8382:8404   */\n      swap1\n      pop\n        /* \"#utility.yul\":8449:8450   */\n      0x01\n        /* \"#utility.yul\":8443:8447   */\n      dup3\n        /* \"#utility.yul\":8439:8451   */\n      and\n        /* \"#utility.yul\":8470:8488   */\n      dup1\n        /* \"#utility.yul\":8460:8541   */\n      tag_220\n      jumpi\n        /* \"#utility.yul\":8526:8530   */\n      0x7f\n        /* \"#utility.yul\":8518:8524   */\n      dup3\n        /* \"#utility.yul\":8514:8531   */\n      and\n        /* \"#utility.yul\":8504:8531   */\n      swap2\n      pop\n        /* \"#utility.yul\":8460:8541   */\n    tag_220:\n        /* \"#utility.yul\":8588:8590   */\n      0x20\n        /* \"#utility.yul\":8580:8586   */\n      dup3\n        /* \"#utility.yul\":8577:8591   */\n      lt\n        /* \"#utility.yul\":8557:8575   */\n      dup2\n        /* \"#utility.yul\":8554:8592   */\n      sub\n        /* \"#utility.yul\":8551:8635   */\n      tag_221\n      jumpi\n        /* \"#utility.yul\":8607:8625   */\n      tag_222\n      tag_114\n      jump\t// in\n    tag_222:\n        /* \"#utility.yul\":8551:8635   */\n    tag_221:\n        /* \"#utility.yul\":8372:8641   */\n      pop\n        /* \"#utility.yul\":8321:8641   */\n      swap2\n      swap1\n      pop\n      jump\t// out\n        /* \"#utility.yul\":8647:8788   */\n    tag_115:\n        /* \"#utility.yul\":8696:8700   */\n      0x00\n        /* \"#utility.yul\":8719:8722   */\n      dup2\n        /* \"#utility.yul\":8711:8722   */\n      swap1\n      pop\n        /* \"#utility.yul\":8742:8745   */\n      dup2\n        /* \"#utility.yul\":8739:8740   */\n      0x00\n        /* \"#utility.yul\":8732:8746   */\n      mstore\n        /* \"#utility.yul\":8776:8780   */\n      0x20\n        /* \"#utility.yul\":8773:8774   */\n      0x00\n        /* \"#utility.yul\":8763:8781   */\n      keccak256\n        /* \"#utility.yul\":8755:8781   */\n      swap1\n      pop\n        /* \"#utility.yul\":8647:8788   */\n      swap2\n      swap1\n      pop\n      jump\t// out\n        /* \"#utility.yul\":8794:8887   */\n    tag_116:\n        /* \"#utility.yul\":8831:8837   */\n      0x00\n        /* \"#utility.yul\":8878:8880   */\n      0x20\n        /* \"#utility.yul\":8873:8875   */\n      0x1f\n        /* \"#utility.yul\":8866:8871   */\n      dup4\n        /* \"#utility.yul\":8862:8876   */\n      add\n        /* \"#utility.yul\":8858:8881   */\n      div\n        /* \"#utility.yul\":8848:8881   */\n      swap1\n      pop\n        /* \"#utility.yul\":8794:8887   */\n      swap2\n      swap1\n      pop\n      jump\t// out\n        /* \"#utility.yul\":8893:9000   */\n    tag_117:\n        /* \"#utility.yul\":8937:8945   */\n      0x00\n        /* \"#utility.yul\":8987:8992   */\n      dup3\n        /* \"#utility.yul\":8981:8985   */\n      dup3\n        /* \"#utility.yul\":8977:8993   */\n      shl\n        /* \"#utility.yul\":8956:8993   */\n      swap1\n      pop\n        /* \"#utility.yul\":8893:9000   */\n      swap3\n      swap2\n      pop\n      pop\n      jump\t// out\n        /* \"#utility.yul\":9006:9399   */\n    tag_118:\n        /* \"#utility.yul\":9075:9081   */\n      0x00\n        /* \"#utility.yul\":9125:9126   */\n      0x08\n        /* \"#utility.yul\":9113:9123   */\n      dup4\n        /* \"#utility.yul\":9109:9127   */\n      mul\n        /* \"#utility.yul\":9148:9245   */\n      tag_227\n        /* \"#utility.yul\":9178:9244   */\n      0xffffffffffffffffffffffffffffffffffffffffffffffffffffffffffffffff\n        /* \"#utility.yul\":9167:9176   */\n      dup3\n        /* \"#utility.yul\":9148:9245   */\n      tag_117\n      jump\t// in\n    tag_227:\n        /* \"#utility.yul\":9266:9305   */\n      tag_228\n        /* \"#utility.yul\":9296:9304   */\n      dup7\n        /* \"#utility.yul\":9285:9294   */\n      dup4\n        /* \"#utility.yul\":9266:9305   */\n      tag_117\n      jump\t// in\n    tag_228:\n        /* \"#utility.yul\":9254:9305   */\n      swap6\n      pop\n        /* \"#utility.yul\":9338:9342   */\n      dup1\n        /* \"#utility.yul\":9334:9343   */\n      not\n        /* \"#utility.yul\":9327:9332   */\n      dup5\n        /* \"#utility.yul\":9323:9344   */\n      and\n        /* \"#utility.yul\":9314:9344   */\n      swap4\n      pop\n        /* \"#utility.yul\":9387:9391   */\n      dup1\n        /* \"#utility.yul\":9377:9385   */\n      dup7\n        /* \"#utility.yul\":9373:9392   */\n      and\n        /* \"#utility.yul\":9366:9371   */\n      dup5\n        /* \"#utility.yul\":9363:9393   */\n      or\n        /* \"#utility.yul\":9353:9393   */\n      swap3\n      pop\n        /* \"#utility.yul\":9082:9399   */\n      pop\n      pop\n        /* \"#utility.yul\":9006:9399   */\n      swap4\n      swap3\n      pop\n      pop\n      pop\n      jump\t// out\n        /* \"#utility.yul\":9405:9465   */\n    tag_119:\n        /* \"#utility.yul\":9433:9436   */\n      0x00\n        /* \"#utility.yul\":9454:9459   */\n      dup2\n        /* \"#utility.yul\":9447:9459   */\n      swap1\n      pop\n        /* \"#utility.yul\":9405:9465   */\n      swap2\n      swap1\n      pop\n      jump\t// out\n        /* \"#utility.yul\":9471:9613   */\n    tag_120:\n        /* \"#utility.yul\":9521:9530   */\n      0x00\n        /* \"#utility.yul\":9554:9607   */\n      tag_231\n        /* \"#utility.yul\":9572:9606   */\n      tag_232\n        /* \"#utility.yul\":9581:9605   */\n      tag_233\n        /* \"#utility.yul\":9599:9604   */\n      dup5\n        /* \"#utility.yul\":9581:9605   */\n      tag_104\n      jump\t// in\n    tag_233:\n        /* \"#utility.yul\":9572:9606   */\n      tag_119\n      jump\t// in\n    tag_232:\n        /* \"#utility.yul\":9554:9607   */\n      tag_104\n      jump\t// in\n    tag_231:\n        /* \"#utility.yul\":9541:9607   */\n      swap1\n      pop\n        /* \"#utility.yul\":9471:9613   */\n      swap2\n      swap1\n      pop\n      jump\t// out\n        /* \"#utility.yul\":9619:9694   */\n    tag_121:\n        /* \"#utility.yul\":9662:9665   */\n      0x00\n        /* \"#utility.yul\":9683:9688   */\n      dup2\n        /* \"#utility.yul\":9676:9688   */\n      swap1\n      pop\n        /* \"#utility.yul\":9619:9694   */\n      swap2\n      swap1\n      pop\n      jump\t// out\n        /* \"#utility.yul\":9700:9969   */\n    tag_122:\n        /* \"#utility.yul\":9810:9849   */\n      tag_236\n        /* \"#utility.yul\":9841:9848   */\n      dup4\n        /* \"#utility.yul\":9810:9849   */\n      tag_120\n      jump\t// in\n    tag_236:\n        /* \"#utility.yul\":9871:9962   */\n      tag_237\n        /* \"#utility.yul\":9920:9961   */\n      tag_238\n        /* \"#utility.yul\":9944:9960   */\n      dup3\n        /* \"#utility.yul\":9920:9961   */\n      tag_121\n      jump\t// in\n    tag_238:\n        /* \"#utility.yul\":9912:9918   */\n      dup5\n        /* \"#utility.yul\":9905:9909   */\n      dup5\n        /* \"#utility.yul\":9899:9910   */\n      sload\n        /* \"#utility.yul\":9871:9962   */\n      tag_118\n      jump\t// in\n    tag_237:\n        /* \"#utility.yul\":9865:9869   */\n      dup3\n        /* \"#utility.yul\":9858:9963   */\n      sstore\n        /* \"#utility.yul\":9776:9969   */\n      pop\n        /* \"#utility.yul\":9700:9969   */\n      pop\n      pop\n      pop\n      jump\t// out\n        /* \"#utility.yul\":9975:10048   */\n    tag_123:\n        /* \"#utility.yul\":10020:10023   */\n      0x00\n        /* \"#utility.yul\":9975:10048   */\n      swap1\n      jump\t// out\n        /* \"#utility.yul\":10054:10243   */\n    tag_124:\n        /* \"#utility.yul\":10131:10163   */\n      tag_241\n      tag_123\n      jump\t// in\n    tag_241:\n        /* \"#utility.yul\":10172:10237   */\n      tag_242\n        /* \"#utility.yul\":10230:10236   */\n      dup2\n        /* \"#utility.yul\":10222:10228   */\n      dup5\n        /* \"#utility.yul\":10216:10220   */\n      dup5\n        /* \"#utility.yul\":10172:10237   */\n      tag_122\n      jump\t// in\n    tag_242:\n        /* \"#utility.yul\":10107:10243   */\n      pop\n        /* \"#utility.yul\":10054:10243   */\n      pop\n      pop\n      jump\t// out\n        /* \"#utility.yul\":10249:10435   */\n    tag_125:\n        /* \"#utility.yul\":10309:10429   */\n    tag_244:\n        /* \"#utility.yul\":10326:10329   */\n      dup2\n        /* \"#utility.yul\":10319:10324   */\n      dup2\n        /* \"#utility.yul\":10316:10330   */\n      lt\n        /* \"#utility.yul\":10309:10429   */\n      iszero\n      tag_246\n      jumpi\n        /* \"#utility.yul\":10380:10419   */\n      tag_247\n        /* \"#utility.yul\":10417:10418   */\n      0x00\n        /* \"#utility.yul\":10410:10415   */\n      dup3\n        /* \"#utility.yul\":10380:10419   */\n      tag_124\n      jump\t// in\n    tag_247:\n        /* \"#utility.yul\":10353:10354   */\n      0x01\n        /* \"#utility.yul\":10346:10351   */\n      dup2\n        /* \"#utility.yul\":10342:10355   */\n      add\n        /* \"#utility.yul\":10333:10355   */\n      swap1\n      pop\n        /* \"#utility.yul\":10309:10429   */\n      jump(tag_244)\n    tag_246:\n        /* \"#utility.yul\":10249:10435   */\n      pop\n      pop\n      jump\t// out\n        /* \"#utility.yul\":10441:10984   */\n    tag_126:\n        /* \"#utility.yul\":10542:10544   */\n      0x1f\n        /* \"#utility.yul\":10537:10540   */\n      dup3\n        /* \"#utility.yul\":10534:10545   */\n      gt\n        /* \"#utility.yul\":10531:10977   */\n      iszero\n      tag_249\n      jumpi\n        /* \"#utility.yul\":10576:10614   */\n      tag_250\n        /* \"#utility.yul\":10608:10613   */\n      dup2\n        /* \"#utility.yul\":10576:10614   */\n      tag_115\n      jump\t// in\n    tag_250:\n        /* \"#utility.yul\":10660:10689   */\n      tag_251\n        /* \"#utility.yul\":10678:10688   */\n      dup5\n        /* \"#utility.yul\":10660:10689   */\n      tag_116\n      jump\t// in\n    tag_251:\n        /* \"#utility.yul\":10650:10658   */\n      dup2\n        /* \"#utility.yul\":10646:10690   */\n      add\n        /* \"#utility.yul\":10843:10845   */\n      0x20\n        /* \"#utility.yul\":10831:10841   */\n      dup6\n        /* \"#utility.yul\":10828:10846   */\n      lt\n        /* \"#utility.yul\":10825:10874   */\n      iszero\n      tag_252\n      jumpi\n        /* \"#utility.yul\":10864:10872   */\n      dup2\n        /* \"#utility.yul\":10849:10872   */\n      swap1\n      pop\n        /* \"#utility.yul\":10825:10874   */\n    tag_252:\n        /* \"#utility.yul\":10887:10967   */\n      tag_253\n        /* \"#utility.yul\":10943:10965   */\n      tag_254\n        /* \"#utility.yul\":10961:10964   */\n      dup6\n        /* \"#utility.yul\":10943:10965   */\n      tag_116\n      jump\t// in\n    tag_254:\n        /* \"#utility.yul\":10933:10941   */\n      dup4\n        /* \"#utility.yul\":10929:10966   */\n      add\n        /* \"#utility.yul\":10916:10927   */\n      dup3\n        /* \"#utility.yul\":10887:10967   */\n      tag_125\n      jump\t// in\n    tag_253:\n        /* \"#utility.yul\":10546:10977   */\n      pop\n      pop\n        /* \"#utility.yul\":10531:10977   */\n    tag_249:\n        /* \"#utility.yul\":10441:10984   */\n      pop\n      pop\n      pop\n      jump\t// out\n        /* \"#utility.yul\":10990:11107   */\n    tag_127:\n        /* \"#utility.yul\":11044:11052   */\n      0x00\n        /* \"#utility.yul\":11094:11099   */\n      dup3\n        /* \"#utility.yul\":11088:11092   */\n      dup3\n        /* \"#utility.yul\":11084:11100   */\n      shr\n        /* \"#utility.yul\":11063:11100   */\n      swap1\n      pop\n        /* \"#utility.yul\":10990:11107   */\n      swap3\n      swap2\n      pop\n      pop\n      jump\t// out\n        /* \"#utility.yul\":11113:11282   */\n    tag_128:\n        /* \"#utility.yul\":11157:11163   */\n      0x00\n        /* \"#utility.yul\":11190:11241   */\n      tag_257\n        /* \"#utility.yul\":11238:11239   */\n      0x00\n        /* \"#utility.yul\":11234:11240   */\n      not\n        /* \"#utility.yul\":11226:11231   */\n      dup5\n        /* \"#utility.yul\":11223:11224   */\n      0x08\n        /* \"#utility.yul\":11219:11232   */\n      mul\n        /* \"#utility.yul\":11190:11241   */\n      tag_127\n      jump\t// in\n    tag_257:\n        /* \"#utility.yul\":11186:11242   */\n      not\n        /* \"#utility.yul\":11271:11275   */\n      dup1\n        /* \"#utility.yul\":11265:11269   */\n      dup4\n        /* \"#utility.yul\":11261:11276   */\n      and\n        /* \"#utility.yul\":11251:11276   */\n      swap2\n      pop\n        /* \"#utility.yul\":11164:11282   */\n      pop\n        /* \"#utility.yul\":11113:11282   */\n      swap3\n      swap2\n      pop\n      pop\n      jump\t// out\n        /* \"#utility.yul\":11287:11582   */\n    tag_129:\n        /* \"#utility.yul\":11363:11367   */\n      0x00\n        /* \"#utility.yul\":11509:11538   */\n      tag_259\n        /* \"#utility.yul\":11534:11537   */\n      dup4\n        /* \"#utility.yul\":11528:11532   */\n      dup4\n        /* \"#utility.yul\":11509:11538   */\n      tag_128\n      jump\t// in\n    tag_259:\n        /* \"#utility.yul\":11501:11538   */\n      swap2\n      pop\n        /* \"#utility.yul\":11571:11574   */\n      dup3\n        /* \"#utility.yul\":11568:11569   */\n      0x02\n        /* \"#utility.yul\":11564:11575   */\n      mul\n        /* \"#utility.yul\":11558:11562   */\n      dup3\n        /* \"#utility.yul\":11555:11576   */\n      or\n        /* \"#utility.yul\":11547:11576   */\n      swap1\n      pop\n        /* \"#utility.yul\":11287:11582   */\n      swap3\n      swap2\n      pop\n      pop\n      jump\t// out\n        /* \"#utility.yul\":11587:12982   */\n    tag_39:\n        /* \"#utility.yul\":11704:11741   */\n      tag_261\n        /* \"#utility.yul\":11737:11740   */\n      dup3\n        /* \"#utility.yul\":11704:11741   */\n      tag_107\n      jump\t// in\n    tag_261:\n        /* \"#utility.yul\":11806:11824   */\n      0xffffffffffffffff\n        /* \"#utility.yul\":11798:11804   */\n      dup2\n        /* \"#utility.yul\":11795:11825   */\n      gt\n        /* \"#utility.yul\":11792:11848   */\n      iszero\n      tag_262\n      jumpi\n        /* \"#utility.yul\":11828:11846   */\n      tag_263\n      tag_97\n      jump\t// in\n    tag_263:\n        /* \"#utility.yul\":11792:11848   */\n    tag_262:\n        /* \"#utility.yul\":11872:11910   */\n      tag_264\n        /* \"#utility.yul\":11904:11908   */\n      dup3\n        /* \"#utility.yul\":11898:11909   */\n      sload\n        /* \"#utility.yul\":11872:11910   */\n      tag_55\n      jump\t// in\n    tag_264:\n        /* \"#utility.yul\":11957:12024   */\n      tag_265\n        /* \"#utility.yul\":12017:12023   */\n      dup3\n        /* \"#utility.yul\":12009:12015   */\n      dup3\n        /* \"#utility.yul\":12003:12007   */\n      dup6\n        /* \"#utility.yul\":11957:12024   */\n      tag_126\n      jump\t// in\n    tag_265:\n        /* \"#utility.yul\":12051:12052   */\n      0x00\n        /* \"#utility.yul\":12075:12079   */\n      0x20\n        /* \"#utility.yul\":12062:12079   */\n      swap1\n      pop\n        /* \"#utility.yul\":12107:12109   */\n      0x1f\n        /* \"#utility.yul\":12099:12105   */\n      dup4\n        /* \"#utility.yul\":12096:12110   */\n      gt\n        /* \"#utility.yul\":12124:12125   */\n      0x01\n        /* \"#utility.yul\":12119:12737   */\n      dup2\n      eq\n      tag_267\n      jumpi\n        /* \"#utility.yul\":12781:12782   */\n      0x00\n        /* \"#utility.yul\":12798:12804   */\n      dup5\n        /* \"#utility.yul\":12795:12872   */\n      iszero\n      tag_268\n      jumpi\n        /* \"#utility.yul\":12847:12856   */\n      dup3\n        /* \"#utility.yul\":12842:12845   */\n      dup8\n        /* \"#utility.yul\":12838:12857   */\n      add\n        /* \"#utility.yul\":12832:12858   */\n      mload\n        /* \"#utility.yul\":12823:12858   */\n      swap1\n      pop\n        /* \"#utility.yul\":12795:12872   */\n    tag_268:\n        /* \"#utility.yul\":12898:12965   */\n      tag_269\n        /* \"#utility.yul\":12958:12964   */\n      dup6\n        /* \"#utility.yul\":12951:12956   */\n      dup3\n        /* \"#utility.yul\":12898:12965   */\n      tag_129\n      jump\t// in\n    tag_269:\n        /* \"#utility.yul\":12892:12896   */\n      dup7\n        /* \"#utility.yul\":12885:12966   */\n      sstore\n        /* \"#utility.yul\":12754:12976   */\n      pop\n        /* \"#utility.yul\":12089:12976   */\n      jump(tag_266)\n        /* \"#utility.yul\":12119:12737   */\n    tag_267:\n        /* \"#utility.yul\":12171:12175   */\n      0x1f\n        /* \"#utility.yul\":12167:12176   */\n      not\n        /* \"#utility.yul\":12159:12165   */\n      dup5\n        /* \"#utility.yul\":12155:12177   */\n      and\n        /* \"#utility.yul\":12205:12242   */\n      tag_270\n        /* \"#utility.yul\":12237:12241   */\n      dup7\n        /* \"#utility.yul\":12205:12242   */\n      tag_115\n      jump\t// in\n    tag_270:\n        /* \"#utility.yul\":12264:12265   */\n      0x00\n        /* \"#utility.yul\":12278:12486   */\n    tag_271:\n        /* \"#utility.yul\":12292:12299   */\n      dup3\n        /* \"#utility.yul\":12289:12290   */\n      dup2\n        /* \"#utility.yul\":12286:12300   */\n      lt\n        /* \"#utility.yul\":12278:12486   */\n      iszero\n      tag_273\n      jumpi\n        /* \"#utility.yul\":12371:12380   */\n      dup5\n        /* \"#utility.yul\":12366:12369   */\n      dup10\n        /* \"#utility.yul\":12362:12381   */\n      add\n        /* \"#utility.yul\":12356:12382   */\n      mload\n        /* \"#utility.yul\":12348:12354   */\n      dup3\n        /* \"#utility.yul\":12341:12383   */\n      sstore\n        /* \"#utility.yul\":12422:12423   */\n      0x01\n        /* \"#utility.yul\":12414:12420   */\n      dup3\n        /* \"#utility.yul\":12410:12424   */\n      add\n        /* \"#utility.yul\":12400:12424   */\n      swap2\n      pop\n        /* \"#utility.yul\":12469:12471   */\n      0x20\n        /* \"#utility.yul\":12458:12467   */\n      dup6\n        /* \"#utility.yul\":12454:12472   */\n      add\n        /* \"#utility.yul\":12441:12472   */\n      swap5\n      pop\n        /* \"#utility.yul\":12315:12319   */\n      0x20\n        /* \"#utility.yul\":12312:12313   */\n      dup2\n        /* \"#utility.yul\":12308:12320   */\n      add\n        /* \"#utility.yul\":12303:12320   */\n      swap1\n      pop\n        /* \"#utility.yul\":12278:12486   */\n      jump(tag_271)\n    tag_273:\n        /* \"#utility.yul\":12514:12520   */\n      dup7\n        /* \"#utility.yul\":12505:12512   */\n      dup4\n        /* \"#utility.yul\":12502:12521   */\n      lt\n        /* \"#utility.yul\":12499:12678   */\n      iszero\n      tag_274\n      jumpi\n        /* \"#utility.yul\":12572:12581   */\n      dup5\n        /* \"#utility.yul\":12567:12570   */\n      dup10\n        /* \"#utility.yul\":12563:12582   */\n      add\n        /* \"#utility.yul\":12557:12583   */\n      mload\n        /* \"#utility.yul\":12615:12663   */\n      tag_275\n        /* \"#utility.yul\":12657:12661   */\n      0x1f\n        /* \"#utility.yul\":12649:12655   */\n      dup10\n        /* \"#utility.yul\":12645:12662   */\n      and\n        /* \"#utility.yul\":12634:12643   */\n      dup3\n        /* \"#utility.yul\":12615:12663   */\n      tag_128\n      jump\t// in\n    tag_275:\n        /* \"#utility.yul\":12607:12613   */\n      dup4\n        /* \"#utility.yul\":12600:12664   */\n      sstore\n        /* \"#utility.yul\":12522:12678   */\n      pop\n        /* \"#utility.yul\":12499:12678   */\n    tag_274:\n        /* \"#utility.yul\":12724:12725   */\n      0x01\n        /* \"#utility.yul\":12720:12721   */\n      0x02\n        /* \"#utility.yul\":12712:12718   */\n      dup9\n        /* \"#utility.yul\":12708:12722   */\n      mul\n        /* \"#utility.yul\":12704:12726   */\n      add\n        /* \"#utility.yul\":12698:12702   */\n      dup9\n        /* \"#utility.yul\":12691:12727   */\n      sstore\n        /* \"#utility.yul\":12126:12737   */\n      pop\n      pop\n      pop\n        /* \"#utility.yul\":12089:12976   */\n    tag_266:\n      pop\n        /* \"#utility.yul\":11679:12982   */\n      pop\n      pop\n      pop\n        /* \"#utility.yul\":11587:12982   */\n      pop\n      pop\n      jump\t// out\n        /* \"#utility.yul\":12988:13168   */\n    tag_130:\n        /* \"#utility.yul\":13036:13113   */\n      0x4e487b7100000000000000000000000000000000000000000000000000000000\n        /* \"#utility.yul\":13033:13034   */\n      0x00\n        /* \"#utility.yul\":13026:13114   */\n      mstore\n        /* \"#utility.yul\":13133:13137   */\n      0x11\n        /* \"#utility.yul\":13130:13131   */\n      0x04\n        /* \"#utility.yul\":13123:13138   */\n      mstore\n        /* \"#utility.yul\":13157:13161   */\n      0x24\n        /* \"#utility.yul\":13154:13155   */\n      0x00\n        /* \"#utility.yul\":13147:13162   */\n      revert\n        /* \"#utility.yul\":13174:13407   */\n    tag_42:\n        /* \"#utility.yul\":13213:13216   */\n      0x00\n        /* \"#utility.yul\":13236:13260   */\n      tag_278\n        /* \"#utility.yul\":13254:13259   */\n      dup3\n        /* \"#utility.yul\":13236:13260   */\n      tag_104\n      jump\t// in\n    tag_278:\n        /* \"#utility.yul\":13227:13260   */\n      swap2\n      pop\n        /* \"#utility.yul\":13282:13348   */\n      0xffffffffffffffffffffffffffffffffffffffffffffffffffffffffffffffff\n        /* \"#utility.yul\":13275:13280   */\n      dup3\n        /* \"#utility.yul\":13272:13349   */\n      sub\n        /* \"#utility.yul\":13269:13372   */\n      tag_279\n      jumpi\n        /* \"#utility.yul\":13352:13370   */\n      tag_280\n      tag_130\n      jump\t// in\n    tag_280:\n        /* \"#utility.yul\":13269:13372   */\n    tag_279:\n        /* \"#utility.yul\":13399:13400   */\n      0x01\n        /* \"#utility.yul\":13392:13397   */\n      dup3\n        /* \"#utility.yul\":13388:13401   */\n      add\n        /* \"#utility.yul\":13381:13401   */\n      swap1\n      pop\n        /* \"#utility.yul\":13174:13407   */\n      swap2\n      swap1\n      pop\n      jump\t// out\n        /* \"#utility.yul\":13413:13927   */\n    tag_44:\n        /* \"#utility.yul\":13574:13578   */\n      0x00\n        /* \"#utility.yul\":13612:13614   */\n      0x40\n        /* \"#utility.yul\":13601:13610   */\n      dup3\n        /* \"#utility.yul\":13597:13615   */\n      add\n        /* \"#utility.yul\":13589:13615   */\n      swap1\n      pop\n        /* \"#utility.yul\":13661:13670   */\n      dup2\n        /* \"#utility.yul\":13655:13659   */\n      dup2\n        /* \"#utility.yul\":13651:13671   */\n      sub\n        /* \"#utility.yul\":13647:13648   */\n      0x00\n        /* \"#utility.yul\":13636:13645   */\n      dup4\n        /* \"#utility.yul\":13632:13649   */\n      add\n        /* \"#utility.yul\":13625:13672   */\n      mstore\n        /* \"#utility.yul\":13689:13767   */\n      tag_282\n        /* \"#utility.yul\":13762:13766   */\n      dup2\n        /* \"#utility.yul\":13753:13759   */\n      dup6\n        /* \"#utility.yul\":13689:13767   */\n      tag_110\n      jump\t// in\n    tag_282:\n        /* \"#utility.yul\":13681:13767   */\n      swap1\n      pop\n        /* \"#utility.yul\":13814:13823   */\n      dup2\n        /* \"#utility.yul\":13808:13812   */\n      dup2\n        /* \"#utility.yul\":13804:13824   */\n      sub\n        /* \"#utility.yul\":13799:13801   */\n      0x20\n        /* \"#utility.yul\":13788:13797   */\n      dup4\n        /* \"#utility.yul\":13784:13802   */\n      add\n        /* \"#utility.yul\":13777:13825   */\n      mstore\n        /* \"#utility.yul\":13842:13920   */\n      tag_283\n        /* \"#utility.yul\":13915:13919   */\n      dup2\n        /* \"#utility.yul\":13906:13912   */\n      dup5\n        /* \"#utility.yul\":13842:13920   */\n      tag_110\n      jump\t// in\n    tag_283:\n        /* \"#utility.yul\":13834:13920   */\n      swap1\n      pop\n        /* \"#utility.yul\":13413:13927   */\n      swap4\n      swap3\n      pop\n      pop\n      pop\n      jump\t// out\n        /* \"#utility.yul\":13933:14154   */\n    tag_131:\n        /* \"#utility.yul\":14073:14107   */\n      0x426f6f6b20776974682074686973204953424e20646f6573206e6f7420657869\n        /* \"#utility.yul\":14069:14070   */\n      0x00\n        /* \"#utility.yul\":14061:14067   */\n      dup3\n        /* \"#utility.yul\":14057:14071   */\n      add\n        /* \"#utility.yul\":14050:14108   */\n      mstore\n        /* \"#utility.yul\":14142:14146   */\n      0x7374000000000000000000000000000000000000000000000000000000000000\n        /* \"#utility.yul\":14137:14139   */\n      0x20\n        /* \"#utility.yul\":14129:14135   */\n      dup3\n        /* \"#utility.yul\":14125:14140   */\n      add\n        /* \"#utility.yul\":14118:14147   */\n      mstore\n        /* \"#utility.yul\":13933:14154   */\n      pop\n      jump\t// out\n        /* \"#utility.yul\":14160:14526   */\n    tag_132:\n        /* \"#utility.yul\":14302:14305   */\n      0x00\n        /* \"#utility.yul\":14323:14390   */\n      tag_286\n        /* \"#utility.yul\":14387:14389   */\n      0x22\n        /* \"#utility.yul\":14382:14385   */\n      dup4\n        /* \"#utility.yul\":14323:14390   */\n      tag_108\n      jump\t// in\n    tag_286:\n        /* \"#utility.yul\":14316:14390   */\n      swap2\n      pop\n        /* \"#utility.yul\":14399:14492   */\n      tag_287\n        /* \"#utility.yul\":14488:14491   */\n      dup3\n        /* \"#utility.yul\":14399:14492   */\n      tag_131\n      jump\t// in\n    tag_287:\n        /* \"#utility.yul\":14517:14519   */\n      0x40\n        /* \"#utility.yul\":14512:14515   */\n      dup3\n        /* \"#utility.yul\":14508:14520   */\n      add\n        /* \"#utility.yul\":14501:14520   */\n      swap1\n      pop\n        /* \"#utility.yul\":14160:14526   */\n      swap2\n      swap1\n      pop\n      jump\t// out\n        /* \"#utility.yul\":14532:14951   */\n    tag_48:\n        /* \"#utility.yul\":14698:14702   */\n      0x00\n        /* \"#utility.yul\":14736:14738   */\n      0x20\n        /* \"#utility.yul\":14725:14734   */\n      dup3\n        /* \"#utility.yul\":14721:14739   */\n      add\n        /* \"#utility.yul\":14713:14739   */\n      swap1\n      pop\n        /* \"#utility.yul\":14785:14794   */\n      dup2\n        /* \"#utility.yul\":14779:14783   */\n      dup2\n        /* \"#utility.yul\":14775:14795   */\n      sub\n        /* \"#utility.yul\":14771:14772   */\n      0x00\n        /* \"#utility.yul\":14760:14769   */\n      dup4\n        /* \"#utility.yul\":14756:14773   */\n      add\n        /* \"#utility.yul\":14749:14796   */\n      mstore\n        /* \"#utility.yul\":14813:14944   */\n      tag_289\n        /* \"#utility.yul\":14939:14943   */\n      dup2\n        /* \"#utility.yul\":14813:14944   */\n      tag_132\n      jump\t// in\n    tag_289:\n        /* \"#utility.yul\":14805:14944   */\n      swap1\n      pop\n        /* \"#utility.yul\":14532:14951   */\n      swap2\n      swap1\n      pop\n      jump\t// out\n        /* \"#utility.yul\":14957:15128   */\n    tag_53:\n        /* \"#utility.yul\":14996:14999   */\n      0x00\n        /* \"#utility.yul\":15019:15043   */\n      tag_291\n        /* \"#utility.yul\":15037:15042   */\n      dup3\n        /* \"#utility.yul\":15019:15043   */\n      tag_104\n      jump\t// in\n    tag_291:\n        /* \"#utility.yul\":15010:15043   */\n      swap2\n      pop\n        /* \"#utility.yul\":15065:15069   */\n      0x00\n        /* \"#utility.yul\":15058:15063   */\n      dup3\n        /* \"#utility.yul\":15055:15070   */\n      sub\n        /* \"#utility.yul\":15052:15093   */\n      tag_292\n      jumpi\n        /* \"#utility.yul\":15073:15091   */\n      tag_293\n      tag_130\n      jump\t// in\n    tag_293:\n        /* \"#utility.yul\":15052:15093   */\n    tag_292:\n        /* \"#utility.yul\":15120:15121   */\n      0x01\n        /* \"#utility.yul\":15113:15118   */\n      dup3\n        /* \"#utility.yul\":15109:15122   */\n      sub\n        /* \"#utility.yul\":15102:15122   */\n      swap1\n      pop\n        /* \"#utility.yul\":14957:15128   */\n      swap2\n      swap1\n      pop\n      jump\t// out\n\n    auxdata: 0xa2646970667358221220ebdd2de1eb4bcb0b72a41396c8893df9093b65c4d874de270fe2647a577add2364736f6c63430008120033\n}\n",
				"bytecode": {
					"linkReferences": {},
					"object": "608060405234801561001057600080fd5b5061103f806100206000396000f3fe608060405234801561001057600080fd5b50600436106100625760003560e01c806304266224146100675780632151fb3814610083578063687440461461009f578063a65139dc146100d1578063b905ad78146100ed578063e0ff5b8b1461010b575b600080fd5b610081600480360381019061007c91906108ff565b61013d565b005b61009d6004803603810190610098919061098a565b610258565b005b6100b960048036038101906100b4919061098a565b610334565b6040516100c893929190610a45565b60405180910390f35b6100eb60048036038101906100e69190610a8a565b61046e565b005b6100f561054b565b6040516101029190610b15565b60405180910390f35b6101256004803603810190610120919061098a565b610551565b60405161013493929190610a45565b60405180910390f35b60008060008381526020019081526020016000206002015414610195576040517f08c379a000000000000000000000000000000000000000000000000000000000815260040161018c90610ba2565b60405180910390fd5b600060405180606001604052808581526020018481526020018381525090508060008084815260200190815260200160002060008201518160000190816101dc9190610dce565b5060208201518160010190816101f29190610dce565b50604082015181600201559050506001600081548092919061021390610ecf565b9190505550817ff3af718913a5a546501afa100bc90d209d682ade91b77ac38ed42c6849230c3c858560405161024a929190610f17565b60405180910390a250505050565b600080600083815260200190815260200160002060020154036102b0576040517f08c379a00000000000000000000000000000000000000000000000000000000081526004016102a790610fc0565b60405180910390fd5b600080828152602001908152602001600020600080820160006102d39190610712565b6001820160006102e39190610712565b600282016000905550506001600081548092919061030090610fe0565b9190505550807ed5ed47574df40471633fbb8b010e6a63564a4d1b16a1de678595713ab3150d60405160405180910390a250565b600060205280600052604060002060009150905080600001805461035790610bf1565b80601f016020809104026020016040519081016040528092919081815260200182805461038390610bf1565b80156103d05780601f106103a5576101008083540402835291602001916103d0565b820191906000526020600020905b8154815290600101906020018083116103b357829003601f168201915b5050505050908060010180546103e590610bf1565b80601f016020809104026020016040519081016040528092919081815260200182805461041190610bf1565b801561045e5780601f106104335761010080835404028352916020019161045e565b820191906000526020600020905b81548152906001019060200180831161044157829003601f168201915b5050505050908060020154905083565b600080600085815260200190815260200160002060020154036104c6576040517f08c379a00000000000000000000000000000000000000000000000000000000081526004016104bd90610fc0565b60405180910390fd5b8160008085815260200190815260200160002060000190816104e89190610dce565b5080600080858152602001908152602001600020600101908161050b9190610dce565b50827fb031395aaf17ef8a3bcd52277fba40f35eec75374fc65c7c44680dace8abc448838360405161053e929190610f17565b60405180910390a2505050565b60015481565b60608060008060008086815260200190815260200160002060020154036105ad576040517f08c379a00000000000000000000000000000000000000000000000000000000081526004016105a490610fc0565b60405180910390fd5b600080858152602001908152602001600020600001600080868152602001908152602001600020600101600080878152602001908152602001600020600201548280546105f990610bf1565b80601f016020809104026020016040519081016040528092919081815260200182805461062590610bf1565b80156106725780601f1061064757610100808354040283529160200191610672565b820191906000526020600020905b81548152906001019060200180831161065557829003601f168201915b5050505050925081805461068590610bf1565b80601f01602080910402602001604051908101604052809291908181526020018280546106b190610bf1565b80156106fe5780601f106106d3576101008083540402835291602001916106fe565b820191906000526020600020905b8154815290600101906020018083116106e157829003601f168201915b505050505091509250925092509193909250565b50805461071e90610bf1565b6000825580601f10610730575061074f565b601f01602090049060005260206000209081019061074e9190610752565b5b50565b5b8082111561076b576000816000905550600101610753565b5090565b6000604051905090565b600080fd5b600080fd5b600080fd5b600080fd5b6000601f19601f8301169050919050565b7f4e487b7100000000000000000000000000000000000000000000000000000000600052604160045260246000fd5b6107d68261078d565b810181811067ffffffffffffffff821117156107f5576107f461079e565b5b80604052505050565b600061080861076f565b905061081482826107cd565b919050565b600067ffffffffffffffff8211156108345761083361079e565b5b61083d8261078d565b9050602081019050919050565b82818337600083830152505050565b600061086c61086784610819565b6107fe565b90508281526020810184848401111561088857610887610788565b5b61089384828561084a565b509392505050565b600082601f8301126108b0576108af610783565b5b81356108c0848260208601610859565b91505092915050565b6000819050919050565b6108dc816108c9565b81146108e757600080fd5b50565b6000813590506108f9816108d3565b92915050565b60008060006060848603121561091857610917610779565b5b600084013567ffffffffffffffff8111156109365761093561077e565b5b6109428682870161089b565b935050602084013567ffffffffffffffff8111156109635761096261077e565b5b61096f8682870161089b565b9250506040610980868287016108ea565b9150509250925092565b6000602082840312156109a05761099f610779565b5b60006109ae848285016108ea565b91505092915050565b600081519050919050565b600082825260208201905092915050565b60005b838110156109f15780820151818401526020810190506109d6565b60008484015250505050565b6000610a08826109b7565b610a1281856109c2565b9350610a228185602086016109d3565b610a2b8161078d565b840191505092915050565b610a3f816108c9565b82525050565b60006060820190508181036000830152610a5f81866109fd565b90508181036020830152610a7381856109fd565b9050610a826040830184610a36565b949350505050565b600080600060608486031215610aa357610aa2610779565b5b6000610ab1868287016108ea565b935050602084013567ffffffffffffffff811115610ad257610ad161077e565b5b610ade8682870161089b565b925050604084013567ffffffffffffffff811115610aff57610afe61077e565b5b610b0b8682870161089b565b9150509250925092565b6000602082019050610b2a6000830184610a36565b92915050565b7f426f6f6b20776974682074686973204953424e20616c7265616479206578697360008201527f7473000000000000000000000000000000000000000000000000000000000000602082015250565b6000610b8c6022836109c2565b9150610b9782610b30565b604082019050919050565b60006020820190508181036000830152610bbb81610b7f565b9050919050565b7f4e487b7100000000000000000000000000000000000000000000000000000000600052602260045260246000fd5b60006002820490506001821680610c0957607f821691505b602082108103610c1c57610c1b610bc2565b5b50919050565b60008190508160005260206000209050919050565b60006020601f8301049050919050565b600082821b905092915050565b600060088302610c847fffffffffffffffffffffffffffffffffffffffffffffffffffffffffffffffff82610c47565b610c8e8683610c47565b95508019841693508086168417925050509392505050565b6000819050919050565b6000610ccb610cc6610cc1846108c9565b610ca6565b6108c9565b9050919050565b6000819050919050565b610ce583610cb0565b610cf9610cf182610cd2565b848454610c54565b825550505050565b600090565b610d0e610d01565b610d19818484610cdc565b505050565b5b81811015610d3d57610d32600082610d06565b600181019050610d1f565b5050565b601f821115610d8257610d5381610c22565b610d5c84610c37565b81016020851015610d6b578190505b610d7f610d7785610c37565b830182610d1e565b50505b505050565b600082821c905092915050565b6000610da560001984600802610d87565b1980831691505092915050565b6000610dbe8383610d94565b9150826002028217905092915050565b610dd7826109b7565b67ffffffffffffffff811115610df057610def61079e565b5b610dfa8254610bf1565b610e05828285610d41565b600060209050601f831160018114610e385760008415610e26578287015190505b610e308582610db2565b865550610e98565b601f198416610e4686610c22565b60005b82811015610e6e57848901518255600182019150602085019450602081019050610e49565b86831015610e8b5784890151610e87601f891682610d94565b8355505b6001600288020188555050505b505050505050565b7f4e487b7100000000000000000000000000000000000000000000000000000000600052601160045260246000fd5b6000610eda826108c9565b91507fffffffffffffffffffffffffffffffffffffffffffffffffffffffffffffffff8203610f0c57610f0b610ea0565b5b600182019050919050565b60006040820190508181036000830152610f3181856109fd565b90508181036020830152610f4581846109fd565b90509392505050565b7f426f6f6b20776974682074686973204953424e20646f6573206e6f742065786960008201527f7374000000000000000000000000000000000000000000000000000000000000602082015250565b6000610faa6022836109c2565b9150610fb582610f4e565b604082019050919050565b60006020820190508181036000830152610fd981610f9d565b9050919050565b6000610feb826108c9565b915060008203610ffe57610ffd610ea0565b5b60018203905091905056fea2646970667358221220ebdd2de1eb4bcb0b72a41396c8893df9093b65c4d874de270fe2647a577add2364736f6c63430008120033",
					"opcodes": "PUSH1 0x80 PUSH1 0x40 MSTORE CALLVALUE DUP1 ISZERO PUSH2 0x10 JUMPI PUSH1 0x0 DUP1 REVERT JUMPDEST POP PUSH2 0x103F DUP1 PUSH2 0x20 PUSH1 0x0 CODECOPY PUSH1 0x0 RETURN INVALID PUSH1 0x80 PUSH1 0x40 MSTORE CALLVALUE DUP1 ISZERO PUSH2 0x10 JUMPI PUSH1 0x0 DUP1 REVERT JUMPDEST POP PUSH1 0x4 CALLDATASIZE LT PUSH2 0x62 JUMPI PUSH1 0x0 CALLDATALOAD PUSH1 0xE0 SHR DUP1 PUSH4 0x4266224 EQ PUSH2 0x67 JUMPI DUP1 PUSH4 0x2151FB38 EQ PUSH2 0x83 JUMPI DUP1 PUSH4 0x68744046 EQ PUSH2 0x9F JUMPI DUP1 PUSH4 0xA65139DC EQ PUSH2 0xD1 JUMPI DUP1 PUSH4 0xB905AD78 EQ PUSH2 0xED JUMPI DUP1 PUSH4 0xE0FF5B8B EQ PUSH2 0x10B JUMPI JUMPDEST PUSH1 0x0 DUP1 REVERT JUMPDEST PUSH2 0x81 PUSH1 0x4 DUP1 CALLDATASIZE SUB DUP2 ADD SWAP1 PUSH2 0x7C SWAP2 SWAP1 PUSH2 0x8FF JUMP JUMPDEST PUSH2 0x13D JUMP JUMPDEST STOP JUMPDEST PUSH2 0x9D PUSH1 0x4 DUP1 CALLDATASIZE SUB DUP2 ADD SWAP1 PUSH2 0x98 SWAP2 SWAP1 PUSH2 0x98A JUMP JUMPDEST PUSH2 0x258 JUMP JUMPDEST STOP JUMPDEST PUSH2 0xB9 PUSH1 0x4 DUP1 CALLDATASIZE SUB DUP2 ADD SWAP1 PUSH2 0xB4 SWAP2 SWAP1 PUSH2 0x98A JUMP JUMPDEST PUSH2 0x334 JUMP JUMPDEST PUSH1 0x40 MLOAD PUSH2 0xC8 SWAP4 SWAP3 SWAP2 SWAP1 PUSH2 0xA45 JUMP JUMPDEST PUSH1 0x40 MLOAD DUP1 SWAP2 SUB SWAP1 RETURN JUMPDEST PUSH2 0xEB PUSH1 0x4 DUP1 CALLDATASIZE SUB DUP2 ADD SWAP1 PUSH2 0xE6 SWAP2 SWAP1 PUSH2 0xA8A JUMP JUMPDEST PUSH2 0x46E JUMP JUMPDEST STOP JUMPDEST PUSH2 0xF5 PUSH2 0x54B JUMP JUMPDEST PUSH1 0x40 MLOAD PUSH2 0x102 SWAP2 SWAP1 PUSH2 0xB15 JUMP JUMPDEST PUSH1 0x40 MLOAD DUP1 SWAP2 SUB SWAP1 RETURN JUMPDEST PUSH2 0x125 PUSH1 0x4 DUP1 CALLDATASIZE SUB DUP2 ADD SWAP1 PUSH2 0x120 SWAP2 SWAP1 PUSH2 0x98A JUMP JUMPDEST PUSH2 0x551 JUMP JUMPDEST PUSH1 0x40 MLOAD PUSH2 0x134 SWAP4 SWAP3 SWAP2 SWAP1 PUSH2 0xA45 JUMP JUMPDEST PUSH1 0x40 MLOAD DUP1 SWAP2 SUB SWAP1 RETURN JUMPDEST PUSH1 0x0 DUP1 PUSH1 0x0 DUP4 DUP2 MSTORE PUSH1 0x20 ADD SWAP1 DUP2 MSTORE PUSH1 0x20 ADD PUSH1 0x0 KECCAK256 PUSH1 0x2 ADD SLOAD EQ PUSH2 0x195 JUMPI PUSH1 0x40 MLOAD PUSH32 0x8C379A000000000000000000000000000000000000000000000000000000000 DUP2 MSTORE PUSH1 0x4 ADD PUSH2 0x18C SWAP1 PUSH2 0xBA2 JUMP JUMPDEST PUSH1 0x40 MLOAD DUP1 SWAP2 SUB SWAP1 REVERT JUMPDEST PUSH1 0x0 PUSH1 0x40 MLOAD DUP1 PUSH1 0x60 ADD PUSH1 0x40 MSTORE DUP1 DUP6 DUP2 MSTORE PUSH1 0x20 ADD DUP5 DUP2 MSTORE PUSH1 0x20 ADD DUP4 DUP2 MSTORE POP SWAP1 POP DUP1 PUSH1 0x0 DUP1 DUP5 DUP2 MSTORE PUSH1 0x20 ADD SWAP1 DUP2 MSTORE PUSH1 0x20 ADD PUSH1 0x0 KECCAK256 PUSH1 0x0 DUP3 ADD MLOAD DUP2 PUSH1 0x0 ADD SWAP1 DUP2 PUSH2 0x1DC SWAP2 SWAP1 PUSH2 0xDCE JUMP JUMPDEST POP PUSH1 0x20 DUP3 ADD MLOAD DUP2 PUSH1 0x1 ADD SWAP1 DUP2 PUSH2 0x1F2 SWAP2 SWAP1 PUSH2 0xDCE JUMP JUMPDEST POP PUSH1 0x40 DUP3 ADD MLOAD DUP2 PUSH1 0x2 ADD SSTORE SWAP1 POP POP PUSH1 0x1 PUSH1 0x0 DUP2 SLOAD DUP1 SWAP3 SWAP2 SWAP1 PUSH2 0x213 SWAP1 PUSH2 0xECF JUMP JUMPDEST SWAP2 SWAP1 POP SSTORE POP DUP2 PUSH32 0xF3AF718913A5A546501AFA100BC90D209D682ADE91B77AC38ED42C6849230C3C DUP6 DUP6 PUSH1 0x40 MLOAD PUSH2 0x24A SWAP3 SWAP2 SWAP1 PUSH2 0xF17 JUMP JUMPDEST PUSH1 0x40 MLOAD DUP1 SWAP2 SUB SWAP1 LOG2 POP POP POP POP JUMP JUMPDEST PUSH1 0x0 DUP1 PUSH1 0x0 DUP4 DUP2 MSTORE PUSH1 0x20 ADD SWAP1 DUP2 MSTORE PUSH1 0x20 ADD PUSH1 0x0 KECCAK256 PUSH1 0x2 ADD SLOAD SUB PUSH2 0x2B0 JUMPI PUSH1 0x40 MLOAD PUSH32 0x8C379A000000000000000000000000000000000000000000000000000000000 DUP2 MSTORE PUSH1 0x4 ADD PUSH2 0x2A7 SWAP1 PUSH2 0xFC0 JUMP JUMPDEST PUSH1 0x40 MLOAD DUP1 SWAP2 SUB SWAP1 REVERT JUMPDEST PUSH1 0x0 DUP1 DUP3 DUP2 MSTORE PUSH1 0x20 ADD SWAP1 DUP2 MSTORE PUSH1 0x20 ADD PUSH1 0x0 KECCAK256 PUSH1 0x0 DUP1 DUP3 ADD PUSH1 0x0 PUSH2 0x2D3 SWAP2 SWAP1 PUSH2 0x712 JUMP JUMPDEST PUSH1 0x1 DUP3 ADD PUSH1 0x0 PUSH2 0x2E3 SWAP2 SWAP1 PUSH2 0x712 JUMP JUMPDEST PUSH1 0x2 DUP3 ADD PUSH1 0x0 SWAP1 SSTORE POP POP PUSH1 0x1 PUSH1 0x0 DUP2 SLOAD DUP1 SWAP3 SWAP2 SWAP1 PUSH2 0x300 SWAP1 PUSH2 0xFE0 JUMP JUMPDEST SWAP2 SWAP1 POP SSTORE POP DUP1 PUSH31 0xD5ED47574DF40471633FBB8B010E6A63564A4D1B16A1DE678595713AB3150D PUSH1 0x40 MLOAD PUSH1 0x40 MLOAD DUP1 SWAP2 SUB SWAP1 LOG2 POP JUMP JUMPDEST PUSH1 0x0 PUSH1 0x20 MSTORE DUP1 PUSH1 0x0 MSTORE PUSH1 0x40 PUSH1 0x0 KECCAK256 PUSH1 0x0 SWAP2 POP SWAP1 POP DUP1 PUSH1 0x0 ADD DUP1 SLOAD PUSH2 0x357 SWAP1 PUSH2 0xBF1 JUMP JUMPDEST DUP1 PUSH1 0x1F ADD PUSH1 0x20 DUP1 SWAP2 DIV MUL PUSH1 0x20 ADD PUSH1 0x40 MLOAD SWAP1 DUP2 ADD PUSH1 0x40 MSTORE DUP1 SWAP3 SWAP2 SWAP1 DUP2 DUP2 MSTORE PUSH1 0x20 ADD DUP3 DUP1 SLOAD PUSH2 0x383 SWAP1 PUSH2 0xBF1 JUMP JUMPDEST DUP1 ISZERO PUSH2 0x3D0 JUMPI DUP1 PUSH1 0x1F LT PUSH2 0x3A5 JUMPI PUSH2 0x100 DUP1 DUP4 SLOAD DIV MUL DUP4 MSTORE SWAP2 PUSH1 0x20 ADD SWAP2 PUSH2 0x3D0 JUMP JUMPDEST DUP3 ADD SWAP2 SWAP1 PUSH1 0x0 MSTORE PUSH1 0x20 PUSH1 0x0 KECCAK256 SWAP1 JUMPDEST DUP2 SLOAD DUP2 MSTORE SWAP1 PUSH1 0x1 ADD SWAP1 PUSH1 0x20 ADD DUP1 DUP4 GT PUSH2 0x3B3 JUMPI DUP3 SWAP1 SUB PUSH1 0x1F AND DUP3 ADD SWAP2 JUMPDEST POP POP POP POP POP SWAP1 DUP1 PUSH1 0x1 ADD DUP1 SLOAD PUSH2 0x3E5 SWAP1 PUSH2 0xBF1 JUMP JUMPDEST DUP1 PUSH1 0x1F ADD PUSH1 0x20 DUP1 SWAP2 DIV MUL PUSH1 0x20 ADD PUSH1 0x40 MLOAD SWAP1 DUP2 ADD PUSH1 0x40 MSTORE DUP1 SWAP3 SWAP2 SWAP1 DUP2 DUP2 MSTORE PUSH1 0x20 ADD DUP3 DUP1 SLOAD PUSH2 0x411 SWAP1 PUSH2 0xBF1 JUMP JUMPDEST DUP1 ISZERO PUSH2 0x45E JUMPI DUP1 PUSH1 0x1F LT PUSH2 0x433 JUMPI PUSH2 0x100 DUP1 DUP4 SLOAD DIV MUL DUP4 MSTORE SWAP2 PUSH1 0x20 ADD SWAP2 PUSH2 0x45E JUMP JUMPDEST DUP3 ADD SWAP2 SWAP1 PUSH1 0x0 MSTORE PUSH1 0x20 PUSH1 0x0 KECCAK256 SWAP1 JUMPDEST DUP2 SLOAD DUP2 MSTORE SWAP1 PUSH1 0x1 ADD SWAP1 PUSH1 0x20 ADD DUP1 DUP4 GT PUSH2 0x441 JUMPI DUP3 SWAP1 SUB PUSH1 0x1F AND DUP3 ADD SWAP2 JUMPDEST POP POP POP POP POP SWAP1 DUP1 PUSH1 0x2 ADD SLOAD SWAP1 POP DUP4 JUMP JUMPDEST PUSH1 0x0 DUP1 PUSH1 0x0 DUP6 DUP2 MSTORE PUSH1 0x20 ADD SWAP1 DUP2 MSTORE PUSH1 0x20 ADD PUSH1 0x0 KECCAK256 PUSH1 0x2 ADD SLOAD SUB PUSH2 0x4C6 JUMPI PUSH1 0x40 MLOAD PUSH32 0x8C379A000000000000000000000000000000000000000000000000000000000 DUP2 MSTORE PUSH1 0x4 ADD PUSH2 0x4BD SWAP1 PUSH2 0xFC0 JUMP JUMPDEST PUSH1 0x40 MLOAD DUP1 SWAP2 SUB SWAP1 REVERT JUMPDEST DUP2 PUSH1 0x0 DUP1 DUP6 DUP2 MSTORE PUSH1 0x20 ADD SWAP1 DUP2 MSTORE PUSH1 0x20 ADD PUSH1 0x0 KECCAK256 PUSH1 0x0 ADD SWAP1 DUP2 PUSH2 0x4E8 SWAP2 SWAP1 PUSH2 0xDCE JUMP JUMPDEST POP DUP1 PUSH1 0x0 DUP1 DUP6 DUP2 MSTORE PUSH1 0x20 ADD SWAP1 DUP2 MSTORE PUSH1 0x20 ADD PUSH1 0x0 KECCAK256 PUSH1 0x1 ADD SWAP1 DUP2 PUSH2 0x50B SWAP2 SWAP1 PUSH2 0xDCE JUMP JUMPDEST POP DUP3 PUSH32 0xB031395AAF17EF8A3BCD52277FBA40F35EEC75374FC65C7C44680DACE8ABC448 DUP4 DUP4 PUSH1 0x40 MLOAD PUSH2 0x53E SWAP3 SWAP2 SWAP1 PUSH2 0xF17 JUMP JUMPDEST PUSH1 0x40 MLOAD DUP1 SWAP2 SUB SWAP1 LOG2 POP POP POP JUMP JUMPDEST PUSH1 0x1 SLOAD DUP2 JUMP JUMPDEST PUSH1 0x60 DUP1 PUSH1 0x0 DUP1 PUSH1 0x0 DUP1 DUP7 DUP2 MSTORE PUSH1 0x20 ADD SWAP1 DUP2 MSTORE PUSH1 0x20 ADD PUSH1 0x0 KECCAK256 PUSH1 0x2 ADD SLOAD SUB PUSH2 0x5AD JUMPI PUSH1 0x40 MLOAD PUSH32 0x8C379A000000000000000000000000000000000000000000000000000000000 DUP2 MSTORE PUSH1 0x4 ADD PUSH2 0x5A4 SWAP1 PUSH2 0xFC0 JUMP JUMPDEST PUSH1 0x40 MLOAD DUP1 SWAP2 SUB SWAP1 REVERT JUMPDEST PUSH1 0x0 DUP1 DUP6 DUP2 MSTORE PUSH1 0x20 ADD SWAP1 DUP2 MSTORE PUSH1 0x20 ADD PUSH1 0x0 KECCAK256 PUSH1 0x0 ADD PUSH1 0x0 DUP1 DUP7 DUP2 MSTORE PUSH1 0x20 ADD SWAP1 DUP2 MSTORE PUSH1 0x20 ADD PUSH1 0x0 KECCAK256 PUSH1 0x1 ADD PUSH1 0x0 DUP1 DUP8 DUP2 MSTORE PUSH1 0x20 ADD SWAP1 DUP2 MSTORE PUSH1 0x20 ADD PUSH1 0x0 KECCAK256 PUSH1 0x2 ADD SLOAD DUP3 DUP1 SLOAD PUSH2 0x5F9 SWAP1 PUSH2 0xBF1 JUMP JUMPDEST DUP1 PUSH1 0x1F ADD PUSH1 0x20 DUP1 SWAP2 DIV MUL PUSH1 0x20 ADD PUSH1 0x40 MLOAD SWAP1 DUP2 ADD PUSH1 0x40 MSTORE DUP1 SWAP3 SWAP2 SWAP1 DUP2 DUP2 MSTORE PUSH1 0x20 ADD DUP3 DUP1 SLOAD PUSH2 0x625 SWAP1 PUSH2 0xBF1 JUMP JUMPDEST DUP1 ISZERO PUSH2 0x672 JUMPI DUP1 PUSH1 0x1F LT PUSH2 0x647 JUMPI PUSH2 0x100 DUP1 DUP4 SLOAD DIV MUL DUP4 MSTORE SWAP2 PUSH1 0x20 ADD SWAP2 PUSH2 0x672 JUMP JUMPDEST DUP3 ADD SWAP2 SWAP1 PUSH1 0x0 MSTORE PUSH1 0x20 PUSH1 0x0 KECCAK256 SWAP1 JUMPDEST DUP2 SLOAD DUP2 MSTORE SWAP1 PUSH1 0x1 ADD SWAP1 PUSH1 0x20 ADD DUP1 DUP4 GT PUSH2 0x655 JUMPI DUP3 SWAP1 SUB PUSH1 0x1F AND DUP3 ADD SWAP2 JUMPDEST POP POP POP POP POP SWAP3 POP DUP2 DUP1 SLOAD PUSH2 0x685 SWAP1 PUSH2 0xBF1 JUMP JUMPDEST DUP1 PUSH1 0x1F ADD PUSH1 0x20 DUP1 SWAP2 DIV MUL PUSH1 0x20 ADD PUSH1 0x40 MLOAD SWAP1 DUP2 ADD PUSH1 0x40 MSTORE DUP1 SWAP3 SWAP2 SWAP1 DUP2 DUP2 MSTORE PUSH1 0x20 ADD DUP3 DUP1 SLOAD PUSH2 0x6B1 SWAP1 PUSH2 0xBF1 JUMP JUMPDEST DUP1 ISZERO PUSH2 0x6FE JUMPI DUP1 PUSH1 0x1F LT PUSH2 0x6D3 JUMPI PUSH2 0x100 DUP1 DUP4 SLOAD DIV MUL DUP4 MSTORE SWAP2 PUSH1 0x20 ADD SWAP2 PUSH2 0x6FE JUMP JUMPDEST DUP3 ADD SWAP2 SWAP1 PUSH1 0x0 MSTORE PUSH1 0x20 PUSH1 0x0 KECCAK256 SWAP1 JUMPDEST DUP2 SLOAD DUP2 MSTORE SWAP1 PUSH1 0x1 ADD SWAP1 PUSH1 0x20 ADD DUP1 DUP4 GT PUSH2 0x6E1 JUMPI DUP3 SWAP1 SUB PUSH1 0x1F AND DUP3 ADD SWAP2 JUMPDEST POP POP POP POP POP SWAP2 POP SWAP3 POP SWAP3 POP SWAP3 POP SWAP2 SWAP4 SWAP1 SWAP3 POP JUMP JUMPDEST POP DUP1 SLOAD PUSH2 0x71E SWAP1 PUSH2 0xBF1 JUMP JUMPDEST PUSH1 0x0 DUP3 SSTORE DUP1 PUSH1 0x1F LT PUSH2 0x730 JUMPI POP PUSH2 0x74F JUMP JUMPDEST PUSH1 0x1F ADD PUSH1 0x20 SWAP1 DIV SWAP1 PUSH1 0x0 MSTORE PUSH1 0x20 PUSH1 0x0 KECCAK256 SWAP1 DUP2 ADD SWAP1 PUSH2 0x74E SWAP2 SWAP1 PUSH2 0x752 JUMP JUMPDEST JUMPDEST POP JUMP JUMPDEST JUMPDEST DUP1 DUP3 GT ISZERO PUSH2 0x76B JUMPI PUSH1 0x0 DUP2 PUSH1 0x0 SWAP1 SSTORE POP PUSH1 0x1 ADD PUSH2 0x753 JUMP JUMPDEST POP SWAP1 JUMP JUMPDEST PUSH1 0x0 PUSH1 0x40 MLOAD SWAP1 POP SWAP1 JUMP JUMPDEST PUSH1 0x0 DUP1 REVERT JUMPDEST PUSH1 0x0 DUP1 REVERT JUMPDEST PUSH1 0x0 DUP1 REVERT JUMPDEST PUSH1 0x0 DUP1 REVERT JUMPDEST PUSH1 0x0 PUSH1 0x1F NOT PUSH1 0x1F DUP4 ADD AND SWAP1 POP SWAP2 SWAP1 POP JUMP JUMPDEST PUSH32 0x4E487B7100000000000000000000000000000000000000000000000000000000 PUSH1 0x0 MSTORE PUSH1 0x41 PUSH1 0x4 MSTORE PUSH1 0x24 PUSH1 0x0 REVERT JUMPDEST PUSH2 0x7D6 DUP3 PUSH2 0x78D JUMP JUMPDEST DUP2 ADD DUP2 DUP2 LT PUSH8 0xFFFFFFFFFFFFFFFF DUP3 GT OR ISZERO PUSH2 0x7F5 JUMPI PUSH2 0x7F4 PUSH2 0x79E JUMP JUMPDEST JUMPDEST DUP1 PUSH1 0x40 MSTORE POP POP POP JUMP JUMPDEST PUSH1 0x0 PUSH2 0x808 PUSH2 0x76F JUMP JUMPDEST SWAP1 POP PUSH2 0x814 DUP3 DUP3 PUSH2 0x7CD JUMP JUMPDEST SWAP2 SWAP1 POP JUMP JUMPDEST PUSH1 0x0 PUSH8 0xFFFFFFFFFFFFFFFF DUP3 GT ISZERO PUSH2 0x834 JUMPI PUSH2 0x833 PUSH2 0x79E JUMP JUMPDEST JUMPDEST PUSH2 0x83D DUP3 PUSH2 0x78D JUMP JUMPDEST SWAP1 POP PUSH1 0x20 DUP2 ADD SWAP1 POP SWAP2 SWAP1 POP JUMP JUMPDEST DUP3 DUP2 DUP4 CALLDATACOPY PUSH1 0x0 DUP4 DUP4 ADD MSTORE POP POP POP JUMP JUMPDEST PUSH1 0x0 PUSH2 0x86C PUSH2 0x867 DUP5 PUSH2 0x819 JUMP JUMPDEST PUSH2 0x7FE JUMP JUMPDEST SWAP1 POP DUP3 DUP2 MSTORE PUSH1 0x20 DUP2 ADD DUP5 DUP5 DUP5 ADD GT ISZERO PUSH2 0x888 JUMPI PUSH2 0x887 PUSH2 0x788 JUMP JUMPDEST JUMPDEST PUSH2 0x893 DUP5 DUP3 DUP6 PUSH2 0x84A JUMP JUMPDEST POP SWAP4 SWAP3 POP POP POP JUMP JUMPDEST PUSH1 0x0 DUP3 PUSH1 0x1F DUP4 ADD SLT PUSH2 0x8B0 JUMPI PUSH2 0x8AF PUSH2 0x783 JUMP JUMPDEST JUMPDEST DUP2 CALLDATALOAD PUSH2 0x8C0 DUP5 DUP3 PUSH1 0x20 DUP7 ADD PUSH2 0x859 JUMP JUMPDEST SWAP2 POP POP SWAP3 SWAP2 POP POP JUMP JUMPDEST PUSH1 0x0 DUP2 SWAP1 POP SWAP2 SWAP1 POP JUMP JUMPDEST PUSH2 0x8DC DUP2 PUSH2 0x8C9 JUMP JUMPDEST DUP2 EQ PUSH2 0x8E7 JUMPI PUSH1 0x0 DUP1 REVERT JUMPDEST POP JUMP JUMPDEST PUSH1 0x0 DUP2 CALLDATALOAD SWAP1 POP PUSH2 0x8F9 DUP2 PUSH2 0x8D3 JUMP JUMPDEST SWAP3 SWAP2 POP POP JUMP JUMPDEST PUSH1 0x0 DUP1 PUSH1 0x0 PUSH1 0x60 DUP5 DUP7 SUB SLT ISZERO PUSH2 0x918 JUMPI PUSH2 0x917 PUSH2 0x779 JUMP JUMPDEST JUMPDEST PUSH1 0x0 DUP5 ADD CALLDATALOAD PUSH8 0xFFFFFFFFFFFFFFFF DUP2 GT ISZERO PUSH2 0x936 JUMPI PUSH2 0x935 PUSH2 0x77E JUMP JUMPDEST JUMPDEST PUSH2 0x942 DUP7 DUP3 DUP8 ADD PUSH2 0x89B JUMP JUMPDEST SWAP4 POP POP PUSH1 0x20 DUP5 ADD CALLDATALOAD PUSH8 0xFFFFFFFFFFFFFFFF DUP2 GT ISZERO PUSH2 0x963 JUMPI PUSH2 0x962 PUSH2 0x77E JUMP JUMPDEST JUMPDEST PUSH2 0x96F DUP7 DUP3 DUP8 ADD PUSH2 0x89B JUMP JUMPDEST SWAP3 POP POP PUSH1 0x40 PUSH2 0x980 DUP7 DUP3 DUP8 ADD PUSH2 0x8EA JUMP JUMPDEST SWAP2 POP POP SWAP3 POP SWAP3 POP SWAP3 JUMP JUMPDEST PUSH1 0x0 PUSH1 0x20 DUP3 DUP5 SUB SLT ISZERO PUSH2 0x9A0 JUMPI PUSH2 0x99F PUSH2 0x779 JUMP JUMPDEST JUMPDEST PUSH1 0x0 PUSH2 0x9AE DUP5 DUP3 DUP6 ADD PUSH2 0x8EA JUMP JUMPDEST SWAP2 POP POP SWAP3 SWAP2 POP POP JUMP JUMPDEST PUSH1 0x0 DUP2 MLOAD SWAP1 POP SWAP2 SWAP1 POP JUMP JUMPDEST PUSH1 0x0 DUP3 DUP3 MSTORE PUSH1 0x20 DUP3 ADD SWAP1 POP SWAP3 SWAP2 POP POP JUMP JUMPDEST PUSH1 0x0 JUMPDEST DUP4 DUP2 LT ISZERO PUSH2 0x9F1 JUMPI DUP1 DUP3 ADD MLOAD DUP2 DUP5 ADD MSTORE PUSH1 0x20 DUP2 ADD SWAP1 POP PUSH2 0x9D6 JUMP JUMPDEST PUSH1 0x0 DUP5 DUP5 ADD MSTORE POP POP POP POP JUMP JUMPDEST PUSH1 0x0 PUSH2 0xA08 DUP3 PUSH2 0x9B7 JUMP JUMPDEST PUSH2 0xA12 DUP2 DUP6 PUSH2 0x9C2 JUMP JUMPDEST SWAP4 POP PUSH2 0xA22 DUP2 DUP6 PUSH1 0x20 DUP7 ADD PUSH2 0x9D3 JUMP JUMPDEST PUSH2 0xA2B DUP2 PUSH2 0x78D JUMP JUMPDEST DUP5 ADD SWAP2 POP POP SWAP3 SWAP2 POP POP JUMP JUMPDEST PUSH2 0xA3F DUP2 PUSH2 0x8C9 JUMP JUMPDEST DUP3 MSTORE POP POP JUMP JUMPDEST PUSH1 0x0 PUSH1 0x60 DUP3 ADD SWAP1 POP DUP2 DUP2 SUB PUSH1 0x0 DUP4 ADD MSTORE PUSH2 0xA5F DUP2 DUP7 PUSH2 0x9FD JUMP JUMPDEST SWAP1 POP DUP2 DUP2 SUB PUSH1 0x20 DUP4 ADD MSTORE PUSH2 0xA73 DUP2 DUP6 PUSH2 0x9FD JUMP JUMPDEST SWAP1 POP PUSH2 0xA82 PUSH1 0x40 DUP4 ADD DUP5 PUSH2 0xA36 JUMP JUMPDEST SWAP5 SWAP4 POP POP POP POP JUMP JUMPDEST PUSH1 0x0 DUP1 PUSH1 0x0 PUSH1 0x60 DUP5 DUP7 SUB SLT ISZERO PUSH2 0xAA3 JUMPI PUSH2 0xAA2 PUSH2 0x779 JUMP JUMPDEST JUMPDEST PUSH1 0x0 PUSH2 0xAB1 DUP7 DUP3 DUP8 ADD PUSH2 0x8EA JUMP JUMPDEST SWAP4 POP POP PUSH1 0x20 DUP5 ADD CALLDATALOAD PUSH8 0xFFFFFFFFFFFFFFFF DUP2 GT ISZERO PUSH2 0xAD2 JUMPI PUSH2 0xAD1 PUSH2 0x77E JUMP JUMPDEST JUMPDEST PUSH2 0xADE DUP7 DUP3 DUP8 ADD PUSH2 0x89B JUMP JUMPDEST SWAP3 POP POP PUSH1 0x40 DUP5 ADD CALLDATALOAD PUSH8 0xFFFFFFFFFFFFFFFF DUP2 GT ISZERO PUSH2 0xAFF JUMPI PUSH2 0xAFE PUSH2 0x77E JUMP JUMPDEST JUMPDEST PUSH2 0xB0B DUP7 DUP3 DUP8 ADD PUSH2 0x89B JUMP JUMPDEST SWAP2 POP POP SWAP3 POP SWAP3 POP SWAP3 JUMP JUMPDEST PUSH1 0x0 PUSH1 0x20 DUP3 ADD SWAP1 POP PUSH2 0xB2A PUSH1 0x0 DUP4 ADD DUP5 PUSH2 0xA36 JUMP JUMPDEST SWAP3 SWAP2 POP POP JUMP JUMPDEST PUSH32 0x426F6F6B20776974682074686973204953424E20616C72656164792065786973 PUSH1 0x0 DUP3 ADD MSTORE PUSH32 0x7473000000000000000000000000000000000000000000000000000000000000 PUSH1 0x20 DUP3 ADD MSTORE POP JUMP JUMPDEST PUSH1 0x0 PUSH2 0xB8C PUSH1 0x22 DUP4 PUSH2 0x9C2 JUMP JUMPDEST SWAP2 POP PUSH2 0xB97 DUP3 PUSH2 0xB30 JUMP JUMPDEST PUSH1 0x40 DUP3 ADD SWAP1 POP SWAP2 SWAP1 POP JUMP JUMPDEST PUSH1 0x0 PUSH1 0x20 DUP3 ADD SWAP1 POP DUP2 DUP2 SUB PUSH1 0x0 DUP4 ADD MSTORE PUSH2 0xBBB DUP2 PUSH2 0xB7F JUMP JUMPDEST SWAP1 POP SWAP2 SWAP1 POP JUMP JUMPDEST PUSH32 0x4E487B7100000000000000000000000000000000000000000000000000000000 PUSH1 0x0 MSTORE PUSH1 0x22 PUSH1 0x4 MSTORE PUSH1 0x24 PUSH1 0x0 REVERT JUMPDEST PUSH1 0x0 PUSH1 0x2 DUP3 DIV SWAP1 POP PUSH1 0x1 DUP3 AND DUP1 PUSH2 0xC09 JUMPI PUSH1 0x7F DUP3 AND SWAP2 POP JUMPDEST PUSH1 0x20 DUP3 LT DUP2 SUB PUSH2 0xC1C JUMPI PUSH2 0xC1B PUSH2 0xBC2 JUMP JUMPDEST JUMPDEST POP SWAP2 SWAP1 POP JUMP JUMPDEST PUSH1 0x0 DUP2 SWAP1 POP DUP2 PUSH1 0x0 MSTORE PUSH1 0x20 PUSH1 0x0 KECCAK256 SWAP1 POP SWAP2 SWAP1 POP JUMP JUMPDEST PUSH1 0x0 PUSH1 0x20 PUSH1 0x1F DUP4 ADD DIV SWAP1 POP SWAP2 SWAP1 POP JUMP JUMPDEST PUSH1 0x0 DUP3 DUP3 SHL SWAP1 POP SWAP3 SWAP2 POP POP JUMP JUMPDEST PUSH1 0x0 PUSH1 0x8 DUP4 MUL PUSH2 0xC84 PUSH32 0xFFFFFFFFFFFFFFFFFFFFFFFFFFFFFFFFFFFFFFFFFFFFFFFFFFFFFFFFFFFFFFFF DUP3 PUSH2 0xC47 JUMP JUMPDEST PUSH2 0xC8E DUP7 DUP4 PUSH2 0xC47 JUMP JUMPDEST SWAP6 POP DUP1 NOT DUP5 AND SWAP4 POP DUP1 DUP7 AND DUP5 OR SWAP3 POP POP POP SWAP4 SWAP3 POP POP POP JUMP JUMPDEST PUSH1 0x0 DUP2 SWAP1 POP SWAP2 SWAP1 POP JUMP JUMPDEST PUSH1 0x0 PUSH2 0xCCB PUSH2 0xCC6 PUSH2 0xCC1 DUP5 PUSH2 0x8C9 JUMP JUMPDEST PUSH2 0xCA6 JUMP JUMPDEST PUSH2 0x8C9 JUMP JUMPDEST SWAP1 POP SWAP2 SWAP1 POP JUMP JUMPDEST PUSH1 0x0 DUP2 SWAP1 POP SWAP2 SWAP1 POP JUMP JUMPDEST PUSH2 0xCE5 DUP4 PUSH2 0xCB0 JUMP JUMPDEST PUSH2 0xCF9 PUSH2 0xCF1 DUP3 PUSH2 0xCD2 JUMP JUMPDEST DUP5 DUP5 SLOAD PUSH2 0xC54 JUMP JUMPDEST DUP3 SSTORE POP POP POP POP JUMP JUMPDEST PUSH1 0x0 SWAP1 JUMP JUMPDEST PUSH2 0xD0E PUSH2 0xD01 JUMP JUMPDEST PUSH2 0xD19 DUP2 DUP5 DUP5 PUSH2 0xCDC JUMP JUMPDEST POP POP POP JUMP JUMPDEST JUMPDEST DUP2 DUP2 LT ISZERO PUSH2 0xD3D JUMPI PUSH2 0xD32 PUSH1 0x0 DUP3 PUSH2 0xD06 JUMP JUMPDEST PUSH1 0x1 DUP2 ADD SWAP1 POP PUSH2 0xD1F JUMP JUMPDEST POP POP JUMP JUMPDEST PUSH1 0x1F DUP3 GT ISZERO PUSH2 0xD82 JUMPI PUSH2 0xD53 DUP2 PUSH2 0xC22 JUMP JUMPDEST PUSH2 0xD5C DUP5 PUSH2 0xC37 JUMP JUMPDEST DUP2 ADD PUSH1 0x20 DUP6 LT ISZERO PUSH2 0xD6B JUMPI DUP2 SWAP1 POP JUMPDEST PUSH2 0xD7F PUSH2 0xD77 DUP6 PUSH2 0xC37 JUMP JUMPDEST DUP4 ADD DUP3 PUSH2 0xD1E JUMP JUMPDEST POP POP JUMPDEST POP POP POP JUMP JUMPDEST PUSH1 0x0 DUP3 DUP3 SHR SWAP1 POP SWAP3 SWAP2 POP POP JUMP JUMPDEST PUSH1 0x0 PUSH2 0xDA5 PUSH1 0x0 NOT DUP5 PUSH1 0x8 MUL PUSH2 0xD87 JUMP JUMPDEST NOT DUP1 DUP4 AND SWAP2 POP POP SWAP3 SWAP2 POP POP JUMP JUMPDEST PUSH1 0x0 PUSH2 0xDBE DUP4 DUP4 PUSH2 0xD94 JUMP JUMPDEST SWAP2 POP DUP3 PUSH1 0x2 MUL DUP3 OR SWAP1 POP SWAP3 SWAP2 POP POP JUMP JUMPDEST PUSH2 0xDD7 DUP3 PUSH2 0x9B7 JUMP JUMPDEST PUSH8 0xFFFFFFFFFFFFFFFF DUP2 GT ISZERO PUSH2 0xDF0 JUMPI PUSH2 0xDEF PUSH2 0x79E JUMP JUMPDEST JUMPDEST PUSH2 0xDFA DUP3 SLOAD PUSH2 0xBF1 JUMP JUMPDEST PUSH2 0xE05 DUP3 DUP3 DUP6 PUSH2 0xD41 JUMP JUMPDEST PUSH1 0x0 PUSH1 0x20 SWAP1 POP PUSH1 0x1F DUP4 GT PUSH1 0x1 DUP2 EQ PUSH2 0xE38 JUMPI PUSH1 0x0 DUP5 ISZERO PUSH2 0xE26 JUMPI DUP3 DUP8 ADD MLOAD SWAP1 POP JUMPDEST PUSH2 0xE30 DUP6 DUP3 PUSH2 0xDB2 JUMP JUMPDEST DUP7 SSTORE POP PUSH2 0xE98 JUMP JUMPDEST PUSH1 0x1F NOT DUP5 AND PUSH2 0xE46 DUP7 PUSH2 0xC22 JUMP JUMPDEST PUSH1 0x0 JUMPDEST DUP3 DUP2 LT ISZERO PUSH2 0xE6E JUMPI DUP5 DUP10 ADD MLOAD DUP3 SSTORE PUSH1 0x1 DUP3 ADD SWAP2 POP PUSH1 0x20 DUP6 ADD SWAP5 POP PUSH1 0x20 DUP2 ADD SWAP1 POP PUSH2 0xE49 JUMP JUMPDEST DUP7 DUP4 LT ISZERO PUSH2 0xE8B JUMPI DUP5 DUP10 ADD MLOAD PUSH2 0xE87 PUSH1 0x1F DUP10 AND DUP3 PUSH2 0xD94 JUMP JUMPDEST DUP4 SSTORE POP JUMPDEST PUSH1 0x1 PUSH1 0x2 DUP9 MUL ADD DUP9 SSTORE POP POP POP JUMPDEST POP POP POP POP POP POP JUMP JUMPDEST PUSH32 0x4E487B7100000000000000000000000000000000000000000000000000000000 PUSH1 0x0 MSTORE PUSH1 0x11 PUSH1 0x4 MSTORE PUSH1 0x24 PUSH1 0x0 REVERT JUMPDEST PUSH1 0x0 PUSH2 0xEDA DUP3 PUSH2 0x8C9 JUMP JUMPDEST SWAP2 POP PUSH32 0xFFFFFFFFFFFFFFFFFFFFFFFFFFFFFFFFFFFFFFFFFFFFFFFFFFFFFFFFFFFFFFFF DUP3 SUB PUSH2 0xF0C JUMPI PUSH2 0xF0B PUSH2 0xEA0 JUMP JUMPDEST JUMPDEST PUSH1 0x1 DUP3 ADD SWAP1 POP SWAP2 SWAP1 POP JUMP JUMPDEST PUSH1 0x0 PUSH1 0x40 DUP3 ADD SWAP1 POP DUP2 DUP2 SUB PUSH1 0x0 DUP4 ADD MSTORE PUSH2 0xF31 DUP2 DUP6 PUSH2 0x9FD JUMP JUMPDEST SWAP1 POP DUP2 DUP2 SUB PUSH1 0x20 DUP4 ADD MSTORE PUSH2 0xF45 DUP2 DUP5 PUSH2 0x9FD JUMP JUMPDEST SWAP1 POP SWAP4 SWAP3 POP POP POP JUMP JUMPDEST PUSH32 0x426F6F6B20776974682074686973204953424E20646F6573206E6F7420657869 PUSH1 0x0 DUP3 ADD MSTORE PUSH32 0x7374000000000000000000000000000000000000000000000000000000000000 PUSH1 0x20 DUP3 ADD MSTORE POP JUMP JUMPDEST PUSH1 0x0 PUSH2 0xFAA PUSH1 0x22 DUP4 PUSH2 0x9C2 JUMP JUMPDEST SWAP2 POP PUSH2 0xFB5 DUP3 PUSH2 0xF4E JUMP JUMPDEST PUSH1 0x40 DUP3 ADD SWAP1 POP SWAP2 SWAP1 POP JUMP JUMPDEST PUSH1 0x0 PUSH1 0x20 DUP3 ADD SWAP1 POP DUP2 DUP2 SUB PUSH1 0x0 DUP4 ADD MSTORE PUSH2 0xFD9 DUP2 PUSH2 0xF9D JUMP JUMPDEST SWAP1 POP SWAP2 SWAP1 POP JUMP JUMPDEST PUSH1 0x0 PUSH2 0xFEB DUP3 PUSH2 0x8C9 JUMP JUMPDEST SWAP2 POP PUSH1 0x0 DUP3 SUB PUSH2 0xFFE JUMPI PUSH2 0xFFD PUSH2 0xEA0 JUMP JUMPDEST JUMPDEST PUSH1 0x1 DUP3 SUB SWAP1 POP SWAP2 SWAP1 POP JUMP INVALID LOG2 PUSH5 0x6970667358 0x22 SLT KECCAK256 0xEB 0xDD 0x2D 0xE1 0xEB 0x4B 0xCB SIGNEXTEND PUSH19 0xA41396C8893DF9093B65C4D874DE270FE2647A JUMPI PUSH27 0xDD2364736F6C634300081200330000000000000000000000000000 "
				},
				"gasEstimates": {
					"creation": {
						"codeDepositCost": "831800",
						"executionCost": "864",
						"totalCost": "832664"
					},
					"external": {
						"addBook(string,string,uint256)": "infinite",
						"bookCount()": "2495",
						"books(uint256)": "infinite",
						"deleteBook(uint256)": "infinite",
						"getBook(uint256)": "infinite",
						"updateBook(uint256,string,string)": "infinite"
					}
				},
				"methodIdentifiers": {
					"addBook(string,string,uint256)": "04266224",
					"bookCount()": "b905ad78",
					"books(uint256)": "68744046",
					"deleteBook(uint256)": "2151fb38",
					"getBook(uint256)": "e0ff5b8b",
					"updateBook(uint256,string,string)": "a65139dc"
				}
			},
			"storageLayout": {
				"storage": [
					{
						"astId": 13,
						"contract": "perpustakaan.sol:Library",
						"label": "books",
						"offset": 0,
						"slot": "0",
						"type": "t_mapping(t_uint256,t_struct(Book)8_storage)"
					},
					{
						"astId": 15,
						"contract": "perpustakaan.sol:Library",
						"label": "bookCount",
						"offset": 0,
						"slot": "1",
						"type": "t_uint256"
					}
				],
				"types": {
					"t_mapping(t_uint256,t_struct(Book)8_storage)": {
						"encoding": "mapping",
						"key": "t_uint256",
						"label": "mapping(uint256 => struct Library.Book)",
						"numberOfBytes": "32",
						"value": "t_struct(Book)8_storage"
					},
					"t_string_storage": {
						"encoding": "bytes",
						"label": "string",
						"numberOfBytes": "32"
					},
					"t_struct(Book)8_storage": {
						"encoding": "inplace",
						"label": "struct Library.Book",
						"members": [
							{
								"astId": 3,
								"contract": "perpustakaan.sol:Library",
								"label": "title",
								"offset": 0,
								"slot": "0",
								"type": "t_string_storage"
							},
							{
								"astId": 5,
								"contract": "perpustakaan.sol:Library",
								"label": "author",
								"offset": 0,
								"slot": "1",
								"type": "t_string_storage"
							},
							{
								"astId": 7,
								"contract": "perpustakaan.sol:Library",
								"label": "ISBN",
								"offset": 0,
								"slot": "2",
								"type": "t_uint256"
							}
						],
						"numberOfBytes": "96"
					},
					"t_uint256": {
						"encoding": "inplace",
						"label": "uint256",
						"numberOfBytes": "32"
					}
				}
			},
			"userdoc": {
				"kind": "user",
				"methods": {},
				"version": 1
			}
		}
	}
}