{
  "_format": "hh-sol-artifact-1",
  "contractName": "Library",
  "sourceName": "contracts/Library.sol",
  "abi": [
    {
      "anonymous": false,
      "inputs": [
        {
          "indexed": true,
          "internalType": "uint256",
          "name": "ISBN",
          "type": "uint256"
        },
        {
          "indexed": false,
          "internalType": "string",
          "name": "title",
          "type": "string"
        },
        {
          "indexed": false,
          "internalType": "string",
          "name": "author",
          "type": "string"
        }
      ],
      "name": "BookAdded",
      "type": "event"
    },
    {
      "anonymous": false,
      "inputs": [
        {
          "indexed": true,
          "internalType": "uint256",
          "name": "ISBN",
          "type": "uint256"
        }
      ],
      "name": "BookDeleted",
      "type": "event"
    },
    {
      "anonymous": false,
      "inputs": [
        {
          "indexed": true,
          "internalType": "uint256",
          "name": "ISBN",
          "type": "uint256"
        },
        {
          "indexed": false,
          "internalType": "string",
          "name": "title",
          "type": "string"
        },
        {
          "indexed": false,
          "internalType": "string",
          "name": "author",
          "type": "string"
        }
      ],
      "name": "BookUpdated",
      "type": "event"
    },
    {
      "inputs": [
        {
          "internalType": "string",
          "name": "_title",
          "type": "string"
        },
        {
          "internalType": "string",
          "name": "_author",
          "type": "string"
        },
        {
          "internalType": "uint256",
          "name": "_ISBN",
          "type": "uint256"
        }
      ],
      "name": "addBook",
      "outputs": [],
      "stateMutability": "nonpayable",
      "type": "function"
    },
    {
      "inputs": [],
      "name": "bookCount",
      "outputs": [
        {
          "internalType": "uint256",
          "name": "",
          "type": "uint256"
        }
      ],
      "stateMutability": "view",
      "type": "function"
    },
    {
      "inputs": [
        {
          "internalType": "uint256",
          "name": "",
          "type": "uint256"
        }
      ],
      "name": "books",
      "outputs": [
        {
          "internalType": "string",
          "name": "title",
          "type": "string"
        },
        {
          "internalType": "string",
          "name": "author",
          "type": "string"
        },
        {
          "internalType": "uint256",
          "name": "ISBN",
          "type": "uint256"
        }
      ],
      "stateMutability": "view",
      "type": "function"
    },
    {
      "inputs": [
        {
          "internalType": "uint256",
          "name": "_ISBN",
          "type": "uint256"
        }
      ],
      "name": "deleteBook",
      "outputs": [],
      "stateMutability": "nonpayable",
      "type": "function"
    },
    {
      "inputs": [
        {
          "internalType": "uint256",
          "name": "_ISBN",
          "type": "uint256"
        }
      ],
      "name": "getBook",
      "outputs": [
        {
          "internalType": "string",
          "name": "",
          "type": "string"
        },
        {
          "internalType": "string",
          "name": "",
          "type": "string"
        },
        {
          "internalType": "uint256",
          "name": "",
          "type": "uint256"
        }
      ],
      "stateMutability": "view",
      "type": "function"
    },
    {
      "inputs": [
        {
          "internalType": "uint256",
          "name": "_ISBN",
          "type": "uint256"
        },
        {
          "internalType": "string",
          "name": "_title",
          "type": "string"
        },
        {
          "internalType": "string",
          "name": "_author",
          "type": "string"
        }
      ],
      "name": "updateBook",
      "outputs": [],
      "stateMutability": "nonpayable",
      "type": "function"
    }
  ],
  "bytecode": "0x608060405234801561001057600080fd5b5061103f806100206000396000f3fe608060405234801561001057600080fd5b50600436106100625760003560e01c806304266224146100675780632151fb3814610083578063687440461461009f578063a65139dc146100d1578063b905ad78146100ed578063e0ff5b8b1461010b575b600080fd5b610081600480360381019061007c91906108ff565b61013d565b005b61009d6004803603810190610098919061098a565b610258565b005b6100b960048036038101906100b4919061098a565b610334565b6040516100c893929190610a45565b60405180910390f35b6100eb60048036038101906100e69190610a8a565b61046e565b005b6100f561054b565b6040516101029190610b15565b60405180910390f35b6101256004803603810190610120919061098a565b610551565b60405161013493929190610a45565b60405180910390f35b60008060008381526020019081526020016000206002015414610195576040517f08c379a000000000000000000000000000000000000000000000000000000000815260040161018c90610ba2565b60405180910390fd5b600060405180606001604052808581526020018481526020018381525090508060008084815260200190815260200160002060008201518160000190816101dc9190610dce565b5060208201518160010190816101f29190610dce565b50604082015181600201559050506001600081548092919061021390610ecf565b9190505550817ff3af718913a5a546501afa100bc90d209d682ade91b77ac38ed42c6849230c3c858560405161024a929190610f17565b60405180910390a250505050565b600080600083815260200190815260200160002060020154036102b0576040517f08c379a00000000000000000000000000000000000000000000000000000000081526004016102a790610fc0565b60405180910390fd5b600080828152602001908152602001600020600080820160006102d39190610712565b6001820160006102e39190610712565b600282016000905550506001600081548092919061030090610fe0565b9190505550807ed5ed47574df40471633fbb8b010e6a63564a4d1b16a1de678595713ab3150d60405160405180910390a250565b600060205280600052604060002060009150905080600001805461035790610bf1565b80601f016020809104026020016040519081016040528092919081815260200182805461038390610bf1565b80156103d05780601f106103a5576101008083540402835291602001916103d0565b820191906000526020600020905b8154815290600101906020018083116103b357829003601f168201915b5050505050908060010180546103e590610bf1565b80601f016020809104026020016040519081016040528092919081815260200182805461041190610bf1565b801561045e5780601f106104335761010080835404028352916020019161045e565b820191906000526020600020905b81548152906001019060200180831161044157829003601f168201915b5050505050908060020154905083565b600080600085815260200190815260200160002060020154036104c6576040517f08c379a00000000000000000000000000000000000000000000000000000000081526004016104bd90610fc0565b60405180910390fd5b8160008085815260200190815260200160002060000190816104e89190610dce565b5080600080858152602001908152602001600020600101908161050b9190610dce565b50827fb031395aaf17ef8a3bcd52277fba40f35eec75374fc65c7c44680dace8abc448838360405161053e929190610f17565b60405180910390a2505050565b60015481565b60608060008060008086815260200190815260200160002060020154036105ad576040517f08c379a00000000000000000000000000000000000000000000000000000000081526004016105a490610fc0565b60405180910390fd5b600080858152602001908152602001600020600001600080868152602001908152602001600020600101600080878152602001908152602001600020600201548280546105f990610bf1565b80601f016020809104026020016040519081016040528092919081815260200182805461062590610bf1565b80156106725780601f1061064757610100808354040283529160200191610672565b820191906000526020600020905b81548152906001019060200180831161065557829003601f168201915b5050505050925081805461068590610bf1565b80601f01602080910402602001604051908101604052809291908181526020018280546106b190610bf1565b80156106fe5780601f106106d3576101008083540402835291602001916106fe565b820191906000526020600020905b8154815290600101906020018083116106e157829003601f168201915b505050505091509250925092509193909250565b50805461071e90610bf1565b6000825580601f10610730575061074f565b601f01602090049060005260206000209081019061074e9190610752565b5b50565b5b8082111561076b576000816000905550600101610753565b5090565b6000604051905090565b600080fd5b600080fd5b600080fd5b600080fd5b6000601f19601f8301169050919050565b7f4e487b7100000000000000000000000000000000000000000000000000000000600052604160045260246000fd5b6107d68261078d565b810181811067ffffffffffffffff821117156107f5576107f461079e565b5b80604052505050565b600061080861076f565b905061081482826107cd565b919050565b600067ffffffffffffffff8211156108345761083361079e565b5b61083d8261078d565b9050602081019050919050565b82818337600083830152505050565b600061086c61086784610819565b6107fe565b90508281526020810184848401111561088857610887610788565b5b61089384828561084a565b509392505050565b600082601f8301126108b0576108af610783565b5b81356108c0848260208601610859565b91505092915050565b6000819050919050565b6108dc816108c9565b81146108e757600080fd5b50565b6000813590506108f9816108d3565b92915050565b60008060006060848603121561091857610917610779565b5b600084013567ffffffffffffffff8111156109365761093561077e565b5b6109428682870161089b565b935050602084013567ffffffffffffffff8111156109635761096261077e565b5b61096f8682870161089b565b9250506040610980868287016108ea565b9150509250925092565b6000602082840312156109a05761099f610779565b5b60006109ae848285016108ea565b91505092915050565b600081519050919050565b600082825260208201905092915050565b60005b838110156109f15780820151818401526020810190506109d6565b60008484015250505050565b6000610a08826109b7565b610a1281856109c2565b9350610a228185602086016109d3565b610a2b8161078d565b840191505092915050565b610a3f816108c9565b82525050565b60006060820190508181036000830152610a5f81866109fd565b90508181036020830152610a7381856109fd565b9050610a826040830184610a36565b949350505050565b600080600060608486031215610aa357610aa2610779565b5b6000610ab1868287016108ea565b935050602084013567ffffffffffffffff811115610ad257610ad161077e565b5b610ade8682870161089b565b925050604084013567ffffffffffffffff811115610aff57610afe61077e565b5b610b0b8682870161089b565b9150509250925092565b6000602082019050610b2a6000830184610a36565b92915050565b7f426f6f6b20776974682074686973204953424e20616c7265616479206578697360008201527f7473000000000000000000000000000000000000000000000000000000000000602082015250565b6000610b8c6022836109c2565b9150610b9782610b30565b604082019050919050565b60006020820190508181036000830152610bbb81610b7f565b9050919050565b7f4e487b7100000000000000000000000000000000000000000000000000000000600052602260045260246000fd5b60006002820490506001821680610c0957607f821691505b602082108103610c1c57610c1b610bc2565b5b50919050565b60008190508160005260206000209050919050565b60006020601f8301049050919050565b600082821b905092915050565b600060088302610c847fffffffffffffffffffffffffffffffffffffffffffffffffffffffffffffffff82610c47565b610c8e8683610c47565b95508019841693508086168417925050509392505050565b6000819050919050565b6000610ccb610cc6610cc1846108c9565b610ca6565b6108c9565b9050919050565b6000819050919050565b610ce583610cb0565b610cf9610cf182610cd2565b848454610c54565b825550505050565b600090565b610d0e610d01565b610d19818484610cdc565b505050565b5b81811015610d3d57610d32600082610d06565b600181019050610d1f565b5050565b601f821115610d8257610d5381610c22565b610d5c84610c37565b81016020851015610d6b578190505b610d7f610d7785610c37565b830182610d1e565b50505b505050565b600082821c905092915050565b6000610da560001984600802610d87565b1980831691505092915050565b6000610dbe8383610d94565b9150826002028217905092915050565b610dd7826109b7565b67ffffffffffffffff811115610df057610def61079e565b5b610dfa8254610bf1565b610e05828285610d41565b600060209050601f831160018114610e385760008415610e26578287015190505b610e308582610db2565b865550610e98565b601f198416610e4686610c22565b60005b82811015610e6e57848901518255600182019150602085019450602081019050610e49565b86831015610e8b5784890151610e87601f891682610d94565b8355505b6001600288020188555050505b505050505050565b7f4e487b7100000000000000000000000000000000000000000000000000000000600052601160045260246000fd5b6000610eda826108c9565b91507fffffffffffffffffffffffffffffffffffffffffffffffffffffffffffffffff8203610f0c57610f0b610ea0565b5b600182019050919050565b60006040820190508181036000830152610f3181856109fd565b90508181036020830152610f4581846109fd565b90509392505050565b7f426f6f6b20776974682074686973204953424e20646f6573206e6f742065786960008201527f7374000000000000000000000000000000000000000000000000000000000000602082015250565b6000610faa6022836109c2565b9150610fb582610f4e565b604082019050919050565b60006020820190508181036000830152610fd981610f9d565b9050919050565b6000610feb826108c9565b915060008203610ffe57610ffd610ea0565b5b60018203905091905056fea264697066735822122075ec732708752d76d12a030752fc9c0e1d8658b7ac1291f86d9d5b7501273cec64736f6c63430008130033",
  "linkReferences": {},
  "deployedLinkReferences": {}
}